:020000040800F2
:10000000705A0220A10200085B230008C502000804
:1000100059230008B10500089729000800000000D6
:10002000000000000000000000000000E1010008E6
:10003000DD050008000000003D0200084B24000818
:10004000BB020008BB020008BB020008BB0200089C
:10005000BB020008BB020008BB020008BB0200088C
:10006000BB020008BB020008BB020008BB0200087C
:10007000BB020008BB020008BB020008BB0200086C
:10008000BB020008BB020008BB020008BB0200085C
:10009000BB020008BB020008BB020008BB0200084C
:1000A000BB020008BB020008BB020008BB0200083C
:1000B000BB020008BB020008BB020008BB0200082C
:1000C000BB020008BB020008BB020008BB0200081C
:1000D000BB020008BB020008BB020008BB0200080C
:1000E000BB020008BB020008BB020008BB020008FC
:1000F000BB020008BB020008BB020008BB020008EC
:10010000BB020008BB020008BB020008BB020008DB
:10011000BB020008BB020008BB020008BB020008CB
:10012000BB020008BB020008BB020008BB020008BB
:10013000BB02000831060008BB020008BB02000831
:10014000BB020008BB020008BB020008BB0200089B
:10015000BB020008BB020008BB020008BB0200088B
:10016000BB020008BB020008BB020008BB0200087B
:10017000BB020008BB020008BB0200080000000030
:10018000BB020008BB020008BB020008BB0200085B
:10019000BB020008BB020008BB020008BB0200084B
:1001A000BB020008BB020008BB020008DFF80CD04D
:1001B00000F01EF900480047015E0008705A022056
:1001C000EFF308807047EFF3098070476846704787
:1001D00030BF72B6704762B6704780F308887047C8
:1001E0002C4B19680868B0E8F04F80F30988BFF31A
:1001F0006F8F4FF0000080F31188704700000000FF
:1002000008480068006880F308884FF0000080F319
:10021000148862B661B6BFF34F8FBFF36F8F00DFF4
:1002200000BF00BF08ED00E0DFF80C00016841F4FA
:1002300070010160704700BF88ED00E0EFF30980B6
:10024000BFF36F8F134B1A681EF0100F08BF20ED1D
:10025000108A20E9F04F106009B44FF0500080F38D
:100260001188BFF34F8FBFF36F8F0CF067FE4FF015
:10027000000080F3118809BC19680868B0E8F04FE5
:100280001EF0100F08BFB0EC108A80F30988BFF38E
:100290006F8F70471C010020EFF30580704700004E
:1002A0000648804706480047FEE7FEE7FEE7FEE710
:1002B000FEE7FEE7FEE7FEE7FEE7FEE7FD240008B7
:1002C000AD0100087046694602F02CFFFFF7FEFF03
:1002D0002DE9F05F0546002092469B46884606467B
:1002E000814640241BE0284641464746224600F00E
:1002F0006EF853465A46C01A914110D3114618461B
:10030000224600F055F82D1A67EB01084F462246A9
:100310000120002100F04CF817EB00094E41201E8F
:10032000A4F10104DFDC484631462A464346BDE8D5
:10033000F09F10B5431A934209D28318881803E03E
:1003400010F8011D03F8011D521EF9D210BD40EA3C
:1003500001039B0703D009E008C9121F08C0042A43
:10036000FAD203E011F8013B00F8013B521EF9D22A
:1003700010BDD2B201E000F8012B491EFBD270473C
:100380000022F6E710B513460A4604461946FFF761
:10039000F0FF204610BD30B504460020034600E0C3
:1003A0005B1C934203D2E05CCD5C401BF8D030BDB7
:1003B000202A04DB203A00FA02F100207047914025
:1003C000C2F1200320FA03F3194390407047202A1A
:1003D00004DB203A21FA02F00021704721FA02F3EF
:1003E000D040C2F1200291400843194670470000F6
:1003F000064C074D06E0E06840F0010394E8070072
:1004000098471034AC42F6D3FFF7D4FE94E80008C6
:10041000B4E8000830B58C1810F8012B12F00F0367
:1004200001D110F8013B120906D110F8012B03E0AD
:1004300010F8015B01F8015B5B1EF9D101E001F8E6
:10044000013B521EFBD1A142E6D3002030BD00008B
:1004500010B502F07DF802F0C9FD0CF09BFA0448DB
:1004600000680CF019FCBDE810400CF0CFBA000099
:100470001000002010B500F0C1FF00F07DF901F080
:10048000F9FF00F097F8BDE8104001A002F084BA2F
:100490002D2D2D2D2D2D2D2D2D2D2D204C776970B1
:1004A0002064656D6F202D2D2D2D2D2D2D2D2D2DA5
:1004B0002D2D0A001CB5FFF78CFE0121072001F04D
:1004C0009FFF642002F07EFF0021072001F098FFCB
:1004D000642002F077FFFFF77EFE022000218DF8F6
:1004E00000008DF801101B488DF802108DF80410E3
:1004F0008DF803108DF80510154A02600122930350
:10050000C0E90123D302C3600182C0F814D0C0E95E
:100510000621D105016200F07DFA04000EA013D07F
:1005200002F03AFA10A002F037FA0823154A1649E9
:10053000084800F0A2F9154A0823A2F50071054801
:1005400000F062F920461CBD02F026FA10A0EAE78E
:1005500000800240C00100200D0A5B44454255471F
:100560005D203E3E20000000657468206861726472
:100570007761726520696E6974206661696C642EAA
:100580002E2E0A00A83300200803002008040020B3
:1005900065746820686172647761726520696E694C
:1005A00074207375636573732E2E2E0A000000008D
:1005B000FEE700000848074901604FF4E13141605F
:1005C00000218160C160016181610C21416101F004
:1005D00041BC000000100140800100207047000075
:1005E000064908B509684FF4FA52B1FBF2F14143EC
:1005F000009100BF491E0091FBD208BD0000002001
:1006000038B50446006800F58050816941F48011D6
:100610008161206800F58050806900900120FFF71B
:10062000DFFF2068009900F58050816138BD00002F
:1006300010B55020EFF3118480F31188BFF34F8F72
:10064000BFF36F8F024800F0A8F984F3118810BD42
:10065000C00100202DE9F041044621B14FF40060B3
:10066000E060C000A060E0690026002861D0354647
:100670002068402702683A490A40D4E90213194326
:10068000294341F40071114301602068056801208D
:1006900000F0A8F820680560206847602068456879
:1006A000012000F09FF8206845602068866020687F
:1006B000C660206881694FF64172114041F08001A7
:1006C000816120688569012000F08CF820688561CF
:1006D0002068C6612068C569012000F083F82068A1
:1006E000C561206800F5805081691E4A11401E4A8C
:1006F0000A438261206800F580508569012000F07E
:1007000071F8206800F5805085612068174900F570
:1007100080500160206800F580500568012000F0DD
:1007200061F8206800F580500560A069012803D0B9
:1007300009E04FF480659BE7206800F58050C169AF
:100740000B4A1143C16160690A4A818811640178CA
:10075000D0F8010041EA00205064BDE8F0810000BB
:100760000F8120FF233FDEF8040020028020C10219
:100770004000010000800240194808B5016841F0BE
:1007800080010160016801F080010091016841F081
:1007900004010160016801F004010091016841F069
:1007A00001010160016801F001010091016841F05F
:1007B00002010160016801F002010091016841F04D
:1007C00040010160016801F040010091016841F4BD
:1007D00080710160006800F48070009008BD000026
:1007E0003038024070B5044600F0FAFD0546601C42
:1007F00002D004480078044400F0F2FD401BA042FF
:10080000FAD370BD040000202DE9F04390F8455064
:100810000024012D0DD04FF0010980F845900225EC
:1008200080F8445044F2F45C4FF000485F1E81624F
:1008300016E00220BDE8F08301EB4415C5F8008006
:10084000C4EBC41606EB460602EB8606C5E901C6F4
:10085000BC4203D205F12006EE6000E0E960641CB2
:100860009C42E9D3026802F58052D16080F844903E
:10087000002180F845100846DCE72DE9F04390F8A8
:1008800045400025012C0BD04FF0010C80F845C0ED
:10089000022480F844404FF480195F1EC1621BE0BF
:1008A0000220BDE8F08301EB4514C4F80090C5EBCD
:1008B000C51606EB460602EB8606A660C6691EB99B
:1008C000266846F440062660BD4203D204F12006A5
:1008D000E66000E0E1606D1C9D42E4D3026802F531
:1008E0008052116180F844C0002180F8451008460C
:1008F000D7E7000010B504A002F04EF8BDE81040A4
:1009000004A002F049B800000D0A5B4552525D2078
:100910003E3E2000657468206572720A0000000087
:1009200010B590F84510012913D0012380F8453007
:10093000022180F84410816A0A680024002A27DB1B
:100940000A68D20518D5826B521C8263012A02D034
:1009500002E0022010BD016341630A68C2F30D4248
:10096000121FC263026B92680264C96840F8281FB4
:1009700003774477002010BD0A68920503D583638E
:10098000C0E90C1402E0826B521C8263C968816268
:1009900000F8443F4470012010BD70B50446006863
:1009A00000F5805041694FF0000649064FF00105FF
:1009B00008D5204600F034FA2068402100F5805028
:1009C000416109E04069C0070AD0204600F006FBFB
:1009D000206800F58050456184F8445084F84560F3
:1009E00020684FF4803100F580504161206800F5A7
:1009F0008050406900040CD52046FFF77BFF20683B
:100A00004FF4004100F58050416184F8445084F86F
:100A1000456070BD2DE9FC5F4FF000060400B34651
:100A2000009624D06068012804D018B1C02184A0A9
:100A300002F01CFAA06928B1012803D0C12180A0CE
:100A400002F014FAE06928B1012803D0C2217CA089
:100A500002F00CFA206A30B1B0F5000F03D0C321C8
:100A600077A002F003FA94F8440018B107E00120DF
:100A7000BDE8FC9F84F84560204600F013F97F48EC
:100A8000016841F480410160006800F480400190F9
:100A90007B48016821F4000101600168226A11436A
:100AA0000160206800F58050016841F0010101609B
:100AB00000F096FC05464FF4FA7708E000F090FC51
:100AC000401BB84203D9032004F8440F6DE02068AE
:100AD00000F580500068C007F0D12068006920F060
:100AE0001C0500F0F5FE6749674A0144914202D2B5
:100AF00045F0080516E06549654A0144914202D275
:100B000045F00C050EE06349634A0144914209D364
:100B1000624908446249884202D245F0040501E076
:100B200045F01005206805614FF400420021204681
:100B300000F056FA012500286FD1FF20FFF752FE82
:100B400060684FF400694FF4804A88B300F048FCB5
:100B5000804641F288376A460121204600F0F8F8C5
:100B600000F03EFCA0EB0800B84218D800984007FF
:100B7000F1D54FF480520021204600F031FA0028D0
:100B80004BD100F02DFC80466A460121204600F042
:100B9000DFF800F025FCA0EB0800B84209D90121DC
:100BA0002046FFF757FD04F8445F032066705FE7B7
:100BB00016E000988006E7D56A461F21204600F01F
:100BC000C7F850BB0098C10602D5C4F80C9000E0ED
:100BD000E660400701D5A66029E0C4F808A026E039
:100BE000A06830B1504504D04FF4CD7114A002F08C
:100BF0003DF9E068484505D020B140F29B1110A0B6
:100C000002F034F9E068A168C00840EA510082B2FD
:100C10000021204600F0E4F930B101212046FFF721
:100C200019FD84F8445022E7FF20FFF7DBFD594609
:100C30002046FFF70FFD84F84450002018E700001D
:100C40002E2E5C4C69627261726965735C53544DFF
:100C50003332463478785F48414C5F447269766538
:100C6000725C5372635C73746D3332663478785F90
:100C700068616C5F6574682E630000004438024050
:100C80000438014000D3CEFEC0E1E40040F1E9FDAC
:100C900040787D0100796CFC005A6202001F0AFA5C
:100CA00080F0FA02F0B50068234987B0884240D14D
:100CB00032200224002503260B278DE8F100694627
:100CC0001E4800F0F1F986208DE8F10069461C48C5
:100CD00000F0EAF9A0028DE8F1006946194800F039
:100CE000E3F970038DE8F1006946174800F0DCF97C
:100CF000002206213D2000F0EFFB3D2000F0BAFB72
:100D00001248016841F000710160016801F0007152
:100D10000591016841F080610160016801F0806126
:100D20000591016841F000610160006800F0006019
:100D3000059007B0F0BD00000080024000080240AE
:100D40000000024000040240001802403038024017
:100D50002DE9F0470446008A91460D46202804D923
:100D60004FF485611FA002F081F894F844008228B6
:100D70001DD0822084F8440020680169228A4FF641
:100D8000FF7301F01C0103EAC2220A434FF4F86129
:100D900001EA8511114321F0020141F001050561CD
:100DA00000F01EFB064601274FF480380FE00220BA
:100DB000BDE8F08700F014FB801B404505D304F824
:100DC000447F002060700320F2E720680569E8078F
:100DD000F0D12068406981B2C9F8001084F84470ED
:100DE0000020E5E72E2E5C4C6962726172696573C2
:100DF0005C53544D3332463478785F48414C5F44FD
:100E000072697665725C5372635C73746D333266BB
:100E10003478785F68616C5F6574682E63000000E9
:100E200008B5002000900848694600680CF0F8FA00
:100E30000098002807D005494FF080500860BFF3A4
:100E40004F8FBFF36F8F08BDE400002004ED00E07A
:100E5000F8B5044690F84500012839D0012584F8FA
:100E60004550022084F8440020680026016841F0C3
:100E7000080101602068006800902846FFF7B0FB79
:100E80002168009808602068016841F00401016051
:100E90002068006800900120FFF7A2FB21680098FD
:100EA00008602046FFF7ACFB206800F580508169A0
:100EB00041F400518161206800F58050816941F062
:100EC0000201816184F8445084F845600020F8BD37
:100ED0000220F8BDF0B590F845300022012B11D06A
:100EE000012780F84570022380F84430002559B16D
:100EF000C46A2368002B0ADA122100F8441F4570E7
:100F00000120F0BD0220F0BD00F8447FF7E740F279
:100F1000F456B1420BD9B1FBF6FCB1FBF6F306FB7C
:100F20001C1CBCF1000F00D05B1C012B43D12268BC
:100F300042F040522260C26AC1F30C015160C16AA2
:100F40000A6842F000420A60C16AC968C16234E0BE
:100F5000D4F800C02CF0405CC4F800C032B9C46AB8
:100F6000D4F800C04CF0805CC4F800C0C46A66606D
:100F70005C1EA24214D1C46AD4F800C04CF0005CDC
:100F8000C4F800C0C3F10104C4EBC41404EB44046E
:100F9000D0F82CC001EB8404C4F30C04CCF804405A
:100FA000C46AD4F800C04CF0004CC4F800C0C46A55
:100FB000521CE468C4629A42CAD3016801F58051A8
:100FC0004A69520705D504224A61016801F580513A
:100FD0004D6000F8447F45700020F0BD7047000070
:100FE0002DE9F0410446008A16460D46202804D912
:100FF0004FF48E611DA001F039FF94F8440042289F
:101000001ED0422084F8440020680169228A4FF6ED
:10101000FF7301F01C0103EAC2220A434FF4F86196
:1010200001EA8511114341F00305B1B24161206825
:10103000056100F0D5F9064601274FF480380FE02E
:101040000220BDE8F08100F0CBF9801B404505D3BC
:1010500004F8447F002060700320F2E720680569EF
:10106000E807F0D184F84470EBE700002E2E5C4CCA
:1010700069627261726965735C53544D33324634F0
:1010800078785F48414C5F4472697665725C537250
:10109000635C73746D3332663478785F68616C5F5B
:1010A0006574682E630000002DE9F84F0446A948D6
:1010B0000D46844221D0A84884421ED0A7488442CD
:1010C0001BD0A748844218D0A648844215D0A64811
:1010D000844212D0A54884420FD0A54884420CD047
:1010E000A448844209D0A448844206D0A34884423C
:1010F00003D0C321A2A001F0B9FE28680104090CA5
:1011000001D0000C03D0C4219DA001F0AFFE68689F
:10111000F8B101281DD011281BD0022819D012289F
:1011200017D0A649884214D0A549884211D0A549B4
:1011300088420ED0A44988420BD0A449884208D0E6
:10114000A349884205D0032803D0C5218CA001F013
:101150008DFEA86838B1012805D0022803D0C62129
:1011600087A001F083FE00264FF00F0B0120B04056
:101170002F688246074057457ED16868022801D013
:10118000122830D1286908B309281FD001281DD0A2
:1011900002281BD0032819D0042817D0052815D001
:1011A000062813D0072811D008280FD00A280DD000
:1011B0000B280BD00C2809D00D2807D00F2805D0FC
:1011C0000E2803D0D7216EA001F050FEF00804EBEA
:1011D0008000026A7107C90E0BFA01F39A432B696A
:1011E0008B401343036222687000032101FA00F868
:1011F0002979814601F0030122EA080201FA09F186
:10120000114321606868012805D0022803D0112805
:1012100001D012281CD1E86848B1012807D0022863
:1012200005D0032803D0EA2155A001F01FFEA068D5
:10123000E96820EA080001FA09F10143A160616848
:10124000287921EA0A01C0F30010B0400843606029
:10125000E168A86821EA080100FA09F00843E060A3
:101260006868C0006FD55B48016841F48041016047
:10127000006800F4804000E065E00090564826F0E9
:1012800003010A18D2F80838B007010F0BFA01F071
:1012900083433048844201D100202DE02E4884420F
:1012A00001D1012028E02D48844201D1022023E011
:1012B0002B48844201D103201EE02A48844201D1F8
:1012C000042019E02848844201D1052014E0274871
:1012D000844201D106200FE02548844201D1072035
:1012E0000AE02448844201D1082005E022488442D3
:1012F00001D1092000E00A2088401843C2F80808FC
:10130000364908686A68B843D20300D53843086094
:101310003249091D08686A68B843920300D538430A
:1013200008602E49083108686A68B843D20200D5BF
:101330003843086029490C3108686A68B84392024A
:1013400000D538430860761C102EFFF40FAFBDE8BF
:10135000F88F000000000240000402400008024034
:10136000000C02400010024000140240001802402D
:10137000001C0240002002400024024000280240DD
:101380002E2E5C4C69627261726965735C53544DB8
:101390003332463478785F48414C5F4472697665F1
:1013A000725C5372635C73746D3332663478785F49
:1013B00068616C5F6770696F2E6300000000111038
:1013C0000000211000003110000012100000221057
:1013D000000032104438024000300140003C01401F
:1013E00001488068704700000400002002488168BE
:1013F0000278114481607047040000200B4810B54A
:10140000016841F400710160016841F4806101608C
:10141000016841F480710160032000F0ADF80F20F5
:1014200000F006F800F024F8002010BD003C024057
:1014300070B50D4D04464FF47A712878B1FBF0F089
:101440000A490968B1FBF0F000F0F0FC48B9102C33
:1014500007D200222146501E00F03EF800206C60AA
:1014600070BD012070BD00000400002000000020BD
:101470007047000010B5040003D5CE2106A001F08E
:10148000F5FC04F01F01012088406109890001F189
:10149000E021C1F8000110BD2E2E5C4C6962726122
:1014A000726965735C53544D3332463478785F48C3
:1014B000414C5F4472697665725C5372635C73740D
:1014C0006D3332663478785F68616C5F636F727415
:1014D00065782E630000000070B514460D46064680
:1014E000102A03D3BA2113A001F0C0FC102D03D39E
:1014F000BB2110A001F0BAFC1E480068C0F3022313
:10150000C3F10700042800D90420191D072901D2BE
:10151000002300E0DB1E012202FA00F1491E2940EF
:1015200099409A40521E22403046BDE87040114317
:1015300000F014BF2E2E5C4C696272617269657393
:101540005C53544D3332463478785F48414C5F44A5
:1015500072697665725C5372635C73746D33326664
:101560003478785F68616C5F636F727465782E633E
:10157000000000000CED00E010B5044607280BD079
:10158000062C09D0052C07D0042C05D0032C03D041
:10159000A22108A001F06AFC164A04F007011068B5
:1015A0004FF6FF03184040EA01201349084310603A
:1015B00010BD00002E2E5C4C696272617269657309
:1015C0005C53544D3332463478785F48414C5F4425
:1015D00072697665725C5372635C73746D333266E4
:1015E0003478785F68616C5F636F727465782E63BE
:1015F000000000000CED00E00000FA052DE9F843C2
:101600001748016841F0805101600068DFF854809C
:1016100000F0805001270090C8F84070FFF7E0FE0E
:1016200004464FF47A75104E04E0FFF7D9FE001B14
:10163000A8420DD87068C003F7D5C8F84470FFF70A
:10164000CFFE044607E0FFF7CBFE001BA84202D9FD
:101650000320BDE8F88370688003F4D50020F8E724
:101660004038024000000E42007000402DE9F04773
:101670000C4605007ED02868401E0E2804D94FF481
:10168000147180A001F0F2FB14B3012C20D0022CC5
:101690001ED0032C1CD0042C1AD0052C18D0062CDC
:1016A00016D0072C14D0082C12D0092C10D00A2CDC
:1016B0000ED00B2C0CD00C2C0AD00D2C08D00E2CDC
:1016C00006D00F2C04D040F251216EA001F0CEFBC9
:1016D000DFF8EC91D9F8000000F00F01E0B280468D
:1016E000A14208D2014689F80010D9F8000000F0A4
:1016F0000F00A0427BD12868724E810729D5400790
:1017000003D5306840F4E05030602878000703D5F6
:10171000306840F460403060A868A0B1802812D0E2
:10172000902810D0A0280ED0B0280CD0C0280AD005
:10173000D02808D0E02806D0F02804D04FF41D713E
:1017400050A001F093FB3068A96820F0F000084336
:1017500030602878C0073CD05A4F6868083F98B17D
:10176000012821D0022822D0032820D040F27B215A
:1017700044A000E03BE001F079FB6868012813D049
:10178000022814D0032812D03868800700282EDAE7
:101790003068696820F0030008433060FFF720FEDE
:1017A000074641F2883A0DE038688003EEE7386872
:1017B0008001EBE7FFF714FEC11B514502D903205E
:1017C000BDE8F0873068696800F00C00B0EB810F6D
:1017D000F0D1D9F80010484601F00F01A14208D914
:1017E00080F80080006800F00F00A04201D00120C6
:1017F000E6E728784FF4805440074FF4A0574FF4A1
:10180000C0584FF4E05914D5E86860B1A0420AD03E
:10181000B84208D0404506D0484504D040F2B9212E
:1018200018A001F023FB3068E96820F4E050084379
:1018300030602878000715D5286960B1A0420AD029
:10184000B84208D0404506D0484504D04FF4307126
:101850000CA001F00BFB3068296920F4604040EADD
:10186000C100306000F05AF83168174AC1F3031123
:10187000515CC840154908600F20FFF7D9FD0020D2
:101880009EE700002E2E5C4C69627261726965737E
:101890005C53544D3332463478785F48414C5F4452
:1018A00072697665725C5372635C73746D33326611
:1018B0003478785F68616C5F7263632E6300000048
:1018C000003C0240083802406CDC000800000020A8
:1018D00001480068704700000000002004480549E6
:1018E00000680968044AC1F38221515CC84070470E
:1018F00000000020083802407CDC0008044805494C
:1019000000680968044AC1F34231515CC84070471D
:1019100000000020083802407CDC0008154810B5A3
:10192000006810F00C01144813D0144B04290FD098
:1019300008290ED10F4C241F216801F03F022168B5
:10194000490207D52068C0F38810A0FB030106E018
:10195000184610BD2168C1F38811A1FB00010023C6
:10196000FEF7B6FC2168C1F30141491C4900B0FBF8
:10197000F1F010BD083802400024F40040787D01E9
:101980002DE9F84F04007CD020680F2803D9F821F6
:10199000ECA001F06BFA2078F94DC00755D06068D3
:1019A0004FF480364FF4A02738B1B04205D0B8428A
:1019B00003D0FD21E3A001F059FAF1480830016895
:1019C000C1F38101012909D00068C0F38100022818
:1019D0000BD1EB48001D0068400206D52868800343
:1019E00033D560680028CED02FE06068B04203D1C4
:1019F000286840F480300CE0B842286803D140F4F5
:101A000080202860F4E720F480302860286820F4E3
:101A100080202860606860B1FFF7E2FC064604E0C1
:101A2000FFF7DEFC801B64287ED828688003F7D58A
:101A30000BE0FFF7D5FC064604E0FFF7D1FC801B66
:101A40006428F1D828688003F7D42078DFF834932D
:101A500080074FF0000A50D5E06830B1012804D06B
:101A600040F22F11B7A001F001FA20691F2804D914
:101A70004FF49871B3A001F0F9F9C148083001683A
:101A800000E091E011F00C0F09D00068C0F3810074
:101A900002280BD1BA48001D0068400206D428680D
:101AA000800714D5E06801287ED110E0E068B0B16D
:101AB0000120C9F80000FFF793FC064604E0FFF799
:101AC0008FFC801B0228AFD828688007F7D52868CC
:101AD000216920F0F80040EAC10028600DE0C9F853
:101AE00000A0FFF77DFC064604E0FFF779FC801BB1
:101AF000022899D828688007F7D4207800072BD5CA
:101B00009F4FA14E60697437C0B1012806D04FF4D1
:101B1000B8718CA001F0AAF9606978B10120306039
:101B2000FFF75EFC064605E042E1FFF759FC801B2B
:101B3000022886D838688007F7D50DE0C6F800A0DF
:101B4000FFF74EFC064604E0FFF74AFC801B022824
:101B5000B9D838688007F7D42078400776D5A068D0
:101B60004FF0000840B1012806D0052804D04FF4FA
:101B7000CE7174A001F07AF9DFF804B20BF1400BDA
:101B8000DBF80000C0000CD4DBF8001041F08051FD
:101B9000CBF80010DBF800004FF0010800F0805097
:101BA00000907A4F386800E0CBE0C0050FD4386869
:101BB00040F480703860FFF713FC064604E0FFF73E
:101BC0000FFC801B022894D83868C005F7D56C4FED
:101BD000A068703701280FD00528386810D020F091
:101BE00001003860386820F004003860A068B0B1A7
:101BF000FFF7F6FB06460EE0386840F00100F4E718
:101C000040F004003860F7E7FFF7EAFB811B41F280
:101C1000883081428DD838688007F5D50DE0FFF710
:101C2000DFFB064606E0FFF7DBFB811B41F2883055
:101C300081428DD838688007F5D4B8F1000F05D0FF
:101C4000DBF8001021F08051CBF80010A0690028CB
:101C500076D0012809D0022807D040F2DF1139A040
:101C600001F004F9A0690028F2D045480830006866
:101C7000C0F38100022864D0A069022805D0C9F809
:101C800060A0FFF7ADFB044695E0E06938B1B0F520
:101C9000800F04D04FF4F4712AA001F0E7F8206A15
:101CA0003F2804D940F2E91126A001F0DFF8606A6C
:101CB0003238B0F5BF7F04D94FF4F57121A001F09F
:101CC000D5F8A06A02280AD0042808D0062806D031
:101CD000082804D040F2EB111AA001F0C7F8E06A1E
:101CE000801E0D2804D94FF4F67116A001F0BEF83D
:101CF0004F46C9F860A0FFF773FB064604E0FFF704
:101D00006FFB801B022853D828688001F7D4D4E9E0
:101D100007010843A16A1E4A490802EB0141626AB1
:101D200041EA8211084394F82C1040EA01611448FA
:101D3000001D016001203866FFF752FB04462EE0CB
:101D40003CE03DE02E2E5C4C696272617269657305
:101D50005C53544D3332463478785F48414C5F448D
:101D600072697665725C5372635C73746D3332664C
:101D70003478785F68616C5F7263632E6300000083
:101D80000038024000004742800E47420070004089
:101D90000000FFFFFFF724FB001B022808D828687B
:101DA0008001F7D50AE0FFF71BFB001B022802D9D0
:101DB0000320BDE8F88F28688001F4D40020F8E7FC
:101DC0000120F6E710B54FF0E02404280AD020B136
:101DD00040F2D91105A001F049F8206920F0040073
:101DE000206110BD206940F00400F9E72E2E5C4C04
:101DF00069627261726965735C53544D3332463463
:101E000078785F48414C5F4472697665725C5372C2
:101E1000635C73746D3332663478785F68616C5FCD
:101E2000636F727465782E630000000010B5401E69
:101E3000B0F1807F01D3012010BD4FF0E02460613C
:101E40000F21601700F08AFA0020A06107202061AE
:101E5000002010BD70B5040022D0A0693D490028C3
:101E60003D4A3E4B3E4E20681CD08D1588420BD01B
:101E7000904209D0984207D0B04205D0294639A0F7
:101E800000F0F4FFA06930B3A069A84223D0B0F5F8
:101E9000007F20D0B0F5407F1DD040F2011117E047
:101EA000012070BD884216D0904214D0984212D0C2
:101EB0003B4988420FD03B4988420CD0B0420AD0FF
:101EC0003949884207D03949884204D040F2051187
:101ED00024A000F0CBFFA06838B1B0F5805F04D03B
:101EE00040F207111FA000F0C1FFE06938B1B0F562
:101EF000004F04D04FF484711AA000F0B7FF94F89B
:101F00003900002520B984F83850204600F050F8F8
:101F1000242084F839002068C16821F40051C16090
:101F2000204600F065FB2068016921F490410161C1
:101F30002068416921F02A0141612068C16841F4AB
:101F40000051C160E563202084F8390084F83A002C
:101F5000002070BD001001400044004000480040D7
:101F6000001401402E2E5C4C6962726172696573C7
:101F70005C53544D3332463478785F48414C5F446B
:101F800072697665725C5372635C73746D3332662A
:101F90003478785F68616C5F756172742E630000DD
:101FA000004C00400050004000780040007C0040A1
:101FB00030B51E4887B0016841F01001016000682B
:101FC00000F01000059019481438016841F0010133
:101FD0000160016801F001010591016841F0010112
:101FE00001600068072400F0010005904FF40070C4
:101FF000009002200190012002900320CDE903040B
:102000000B4D69462846FFF74FF8291500910494B7
:1020100069462846FFF748F8012200212520FFF7EE
:102020005BFA2520FFF726FA07B030BD443802409E
:10203000000002402DE9F843044690F839001E469E
:1020400017460D46202850D1A5B19FB194F838000D
:1020500001284AD0012084F838004FF00008C4F865
:102060003C80212084F83900FFF7BAF9A784814623
:10207000E78426E00120BDE8F883E08C401EE08480
:10208000A0684B46B0F5805F4FF000024FF0800132
:102090002046009603D000F04DFCE8B90DE000F0BA
:1020A00049FCC8B928882168C0F308004860206945
:1020B00008B16D1C05E0AD1C03E0216815F8010BAB
:1020C0004860E08C0028D8D14B46002240212046B1
:1020D000009600F02FFC08B10320CCE7202084F804
:1020E000390084F838800020C5E70220C3E70000EB
:1020F00070B50D4C0025C4F890520C48016821F4CD
:1021000040610160016841F480610160C4F894524B
:10211000022004F5247401F071F9012020600220EE
:1021200001F06CF9256070BD00804342001C024044
:102130000E4810B5016886B041F08001016000686A
:10214000012400F0800005903020CDE90004022039
:10215000CDE9024069460648FEF7A6FF0548C0F8EB
:102160009442C0F8904206B010BD000030380240E2
:10217000001C02400080434270B50D4C0026C4F89C
:1021800090620C48016821F440610160016841F4EB
:10219000806101600125C4F89452022004F5247482
:1021A00001F02CF92560022001F028F9266070BDAD
:1021B00000804342001C02402DE9F047814616484A
:1021C0000024016821F44061016001680160134E40
:1021D000254627464FF00108C6F89072022001F00C
:1021E0000DF9C6F890826006040ED6F8140208B104
:1021F000641CE4B2012001F001F96D1CEDB2082D60
:10220000EAD3B9F1000F04D0FFF772FF2046BDE812
:10221000F087FFF7B1FFF9E7001C0240008043425E
:102220002DE9F04105461448016821F44061016040
:10223000016841F480610160104E0027C6F8907279
:102240003C464FF00108E809C6F894026806050EFE
:10225000022001F0D3F8C6F89082022001F0CEF8F7
:10226000C6F89072022001F0C9F8641CE4B2082C90
:10227000E9D3BDE8F0810000001C02400080434229
:1022800070B50D48016821F440610160016841F4B6
:1022900080610160094C0120C4F89402C4F89002E6
:1022A000042004F5247401F0A9F8002565600420D9
:1022B00001F0A4F8256070BD001C0240008043427C
:1022C0000E4810B5016821F440610160016841F4D5
:1022D000806101600A4C0020C4F89002C4F89402A6
:1022E000042004F5247401F089F801202060606066
:1022F000BDE81040042001F081B80000001C02403D
:102300000080434270B512480024016821F4406106
:102310000160016801600F4D0126C5F894623046E6
:1023200001F06CF8C5F89062012001F067F807E051
:10233000641CE4B2FA2C03D9FFF7C2FF012070BD80
:10234000D5F814020028F3D1C5F8900270BD000042
:10235000001C024000804342FEE770470907090E57
:10236000002806DA00F00F0000F1E02080F8141DCC
:10237000704700F1E02080F800147047154810B550
:10238000026886B0002142F002020260006800F09C
:10239000020005904FF48050CDE900010120029029
:1023A0000320039069460C48FEF77EFEFFF7C0FE4F
:1023B000FFF766FF4020FFF733FFFFF7A3FF074C4F
:1023C0002070FFF77DFFFF2000F02AF8207806B08C
:1023D00010BD000030380240000402401C00002004
:1023E00010B5FFF74DFF4120FFF71AFFFFF78AFFF7
:1023F0000020FFF7E1FE0446FFF762FF204610BD14
:1024000070B50C460546FFF7EBFF0122AA402CB140
:102410000243D0B2BDE8704000F002B89043F9E743
:1024200010B50446FFF72CFF4020FFF7F9FEFFF739
:1024300069FF2046FFF7F4FEFFF764FFFFF740FF58
:10244000BDE810400A2000F0BDBF10B55020EFF3EA
:10245000118480F31188BFF34F8FBFF36F8FFEF7A6
:10246000C5FF0BF019FA012801D00AF041FE84F3F0
:10247000118810BD30B51F4893B00025016841F0A8
:1024800080510160006800F0805011901A48016886
:1024900041F4404101600068022400F44040119082
:1024A00001200090000401908001CDE90640192030
:1024B00008904FF4B470CDE9090407200B906846EA
:1024C000FFF75EFA00B1FEE7FFF798F80CA90F20BE
:1024D00081E831004FF4A0500F904FF480501090DD
:1024E00005210CA8FFF7C2F8002800D0FEE713B0C2
:1024F00030BD0000403802400070004010480168C4
:1025000041F4700101600F48016841F00101016070
:102510000C4A00210832116002680B4B1A4002601D
:10252000031D0A4A1A60026822F4802202600548EC
:102530000C3001600249580680390860704700007D
:1025400088ED00E000380240FFFFF6FE1030002466
:102550003EB50021084609F071FE194817491A4A8C
:10256000016017496FF07F40091D154B0860091D78
:1025700014480860154900208DE8070008331A1F29
:10258000111F134804F0FAF9114804F067FB104CCE
:1025900094F829004007204602D504F087FB01E0AB
:1025A00004F062FB6068010E0091C0F30743C0F3C2
:1025B0000722C1B207A000F0EFF93EBDC0A8007A23
:1025C000F8000020C0A8000139C3000859400008E5
:1025D000D8C10120B1BEB5D84950B5D8D6B7CAC701
:1025E0003A25642E25642E25642E25640A0A0000EF
:1025F0002DE9F04104464068BC49884204D340F6C6
:102600008511BBA000F032FCE06838B1B0F5005F86
:1026100004D040F68611B6A000F028FC206950B125
:10262000B0F5806F07D0B0F5C06F04D040F68711C9
:10263000AFA000F01BFC60694FF6F371084200D1B7
:1026400020B940F68811AAA000F010FC20680169AA
:1026500021F44052E168114301612068C26849F2E7
:102660000C618A432369A168E569194363692B43B7
:1026700019431143C16020684169A26921F4407186
:102680000A434261E0696425B0F5004FA74AA849B2
:1026900020684FF032083FD0884201D090427CD170
:1026A000FFF72CF900EBC00101EB00106168890015
:1026B000B0FBF1F6FFF722F900EBC00101EB0010CF
:1026C00061688900B0FBF1F0B0FBF5F06FF0180124
:1026D000484306EB800108EB0110B0FBF5F000F079
:1026E000F006FFF70BF900EBC00101EB0010616889
:1026F0008900B0FBF1F0B0FBF5F006EB0016FFF738
:10270000FDF800EBC00101EB001061688900B0FB2F
:10271000F1F7FFF7F3F8D2E0884201D090423DD1C3
:10272000FFF7ECF800EBC00101EB00106168490015
:10273000B0FBF1F0B0FBF5F00601FFF7DFF800EBBE
:10274000C00101EB001061684900B0FBF1F7FFF731
:10275000D5F800EBC00101EB001061684900B0FB47
:10276000F1F0B0FBF5F06FF01801484307EB800182
:1027700008EBC100B0FBF5F000F0F80006EB4006F6
:10278000FFF7BCF800EBC00101EB001061684900E5
:10279000B0FBF1F7FFF7B2F83CE055E0FFF79EF829
:1027A00000EBC00101EB001061684900B0FBF1F0E3
:1027B000B0FBF5F00601FFF791F800EBC00101EB6B
:1027C000001061684900B0FBF1F7FFF787F800EBF4
:1027D000C00101EB001061684900B0FBF1F0B0FBF3
:1027E000F5F06FF01801484307EB800108EBC100DA
:1027F000B0FBF5F000F0F80006EB4006FFF76EF8CE
:1028000000EBC00101EB001061684900B0FBF1F77B
:10281000FFF764F800EBC00101EB001061684900AC
:10282000B0FBF1F0B0FBF5F06FF01801484307EB97
:10283000800108EBC100B0FBF5F000F00700216853
:1028400030448860BDE8F081FFF748F800EBC00134
:1028500001EB001061688900B0FBF1F6FFF73EF86C
:1028600000EBC00101EB001061688900B0FBF1F0E2
:10287000B0FBF5F06FF01801484306EB800108EB60
:102880000110B0FBF5F000F0F006FFF727F800EBC1
:10289000C00101EB001061688900B0FBF1F0B0FBF2
:1028A000F5F006EB0016FFF719F800EBC00101EB9D
:1028B000001061688900B0FBF1F7FFF70FF800EB3B
:1028C000C00101EB001061688900B0FBF1F0B0FBC2
:1028D000F5F06FF01801484307EB800108EB011099
:1028E000B0FBF5F000F00F00A9E70000A137A00051
:1028F0002E2E5C4C69627261726965735C53544D33
:102900003332463478785F48414C5F44726976656B
:10291000725C5372635C73746D3332663478785FC3
:1029200068616C5F756172742E6300000014014071
:10293000001001402DE9F0411E4617468846044626
:10294000069D1CE0681C1AD025B1FEF749FD801BCE
:10295000A84214D92068C16821F4D071C1602068F0
:10296000416921F001014161202084F8390084F897
:102970003A00002084F838000320BDE8F081206888
:10298000016838EA010004D00020B842DAD0002003
:10299000F3E70120F9E7FEE70FB4054B10B503A9F3
:1029A000044A029800F02CF810BC5DF814FB0000FB
:1029B000754300087C0100200FB4084B10B504A932
:1029C00002AA039800F01CF8044602A9002000F0B7
:1029D00048FA204610BC5DF814FB0000632E000886
:1029E00002E008C8121F08C1002AFAD170477047D8
:1029F000002001E001C1121F002AFBD17047000036
:102A00002DE9FF4F8DB00F460546002606E025282C
:102A10000BD0DDE90F1290476D1C761C287800283A
:102A2000F5D111B03046BDE8F08F0024A246A14692
:102A30000122EC4900E0044315F8013F203B02FA73
:102A400003F00842F7D128782A2810D06FF02F021F
:102A50002878A0F13001092914D80AEB8A0102EB89
:102A6000410144F0020400EB010A6D1CF0E701CFC4
:102A70005FEA000A03D544F40054CAF1000A44F0A6
:102A800002046D1C28782E2817D115F8010F44F088
:102A900004042A280ED06FF02F022878A0F130010C
:102AA00009290AD809EB890102EB410100EB010970
:102AB0006D1CF2E757F8049B6D1C28786C280FD02A
:102AC00006DC4C2817D068280DD06A2814D104E001
:102AD000742810D07A280FD10DE044F400140AE0D5
:102AE00044F4801401E044F440146978814202D136
:102AF00004F580146D1C6D1C2A786E2A1FD00CDC26
:102B0000632A31D004DC002A8BD0582A11D1A3E0EB
:102B1000642A68D0692A0CD165E0732A2ED004DCBF
:102B20006F2A73D0702A04D19BE0752A6FD0782A5F
:102B30006ED01046DDE90F129047761C50E1C4F3C9
:102B40000250022806D0032809D0042801CF09D05A
:102B5000066045E101CFF117C0E9006140E101CF16
:102B600006803DE106703BE117F8040B8DF800008C
:102B700000208DF80100EB46012003E057F804BB6C
:102B80004FF0FF3061074FF0000102D40DE008F173
:102B90000101884649450FDA8045F8DB1BF808102B
:102BA0000029F4D108E008F1010188468142FADBEE
:102BB0001BF808100029F6D1DDE90F23AAEB080065
:102BC0008146214600F036F9304400EB080604E067
:102BD000DDE90F121BF8010B9047B8F10108F7D29D
:102BE00021464846F7E00A21C4F302534FF0000B98
:102BF0000891022B04D001CFC117032B09D00AE0A2
:102C0000FF1D27F00707F7E8020108E032E01FE0A8
:102C100020E000B2C117042B01D140B2C117031E3E
:102C200071F1000307DA4FF0000CD0EB0C006CEBF5
:102C300001012D2302E0230504D52B238DF8243038
:102C4000012303E0E30701D02023F7E7984658E08B
:102C50000A2110E010210EE010204FF0000B089028
:102C60000CE010214FF0000B44F004044FF0080971
:102C7000089103E008214FF0000B0891C4F30253C0
:102C8000022B04D001CF0021032B06D006E0FF1D4C
:102C900027F00707F7E8020103E080B2042B00D118
:102CA000C0B24FF0000823072BD5702A07D0DDF8FB
:102CB00020C08CF0100C5CEA0B0C05D00EE0402319
:102CC0008DF82430012308E050EA010306D03023B8
:102CD0008DF824308DF8252002239846DDF820C099
:102CE0008CF0080C5CEA0B0C0BD150EA010301D10B
:102CF000630706D530238DF824304FF00108A9F181
:102D00000109582A04D038A20B9208AA0A920BE0B3
:102D10003AA2F9E75B46089AFDF7DAFA0B9B9B5C4F
:102D20000A9A521E0A92137050EA0102F2D10A98CE
:102D3000ADEB000000F1200B600702D524F48034D5
:102D400001E04FF00109D94502DDA9EB0B0000E0DD
:102D5000002000EB0B0141440890AAEB010AE003BC
:102D600006D4DDE90F232146504600F063F80644FF
:102D70004FF0000908E009A911F80900DDE90F1278
:102D8000904709F10109761CC145F4DBE0030CD53D
:102D9000DDE90F232146504600F04CF8064404E0DC
:102DA000DDE90F1230209047761C0899481E0890E4
:102DB0000029F5DC08E00A980A990078491C0A9174
:102DC000DDE90F129047761CBBF10001ABF1010B5E
:102DD000F1DC21465046DDE90F2300F019F80644E6
:102DE0006D1C1BE60928010030313233343536378B
:102DF0003839616263646566000000003031323347
:102E000034353637383941424344454600000000E6
:102E10002DE9F041044600251E461746880404D4D7
:102E200005E039462020B0476D1C641EF9D52846C0
:102E3000BDE8F0812DE9F041044600251E4690468C
:102E4000C80301D5302700E02027880404D505E019
:102E500041463846B0476D1C641EF9D52846BDE88A
:102E6000F0810A68531C0B60107070470C460546D1
:102E7000FDF7ACF900F0CAF82246294601A0FFF799
:102E80008BFDFEE7617373657274206661696C6522
:102E9000642061742025733A2564200A0000000034
:102EA0008CB0202225A102A8FDF743FA41F2893611
:102EB000B520CDE900060023A822C02127A0FFF7F6
:102EC0006BFD3048FFF768FD2F48FFF765FD2F4D7C
:102ED00000221146102003F03BFC04001AD03246B9
:102EE0000AA90A9503F032FB401C29A019D0FFF76C
:102EF00053FD2BA0FFF750FD00254FF47A760023F9
:102F00001E2202A92046009503F0A2FC304609F0DB
:102F10008DFEF4E71EA0FFF73FFD29A0FFF73CFD63
:102F200007E0FFF739FD2CA0FFF736FD204603F040
:102F3000E4FA0A2009F07AFECAE7000054686973CF
:102F400020697320612054435020436C69656E747E
:102F500020746573742E2E2E0A000000C4BFB5D8ED
:102F60004950B5D8D6B73A25642E25642E25642E4F
:102F70002564200920B6CBBFDABAC53A25640A0A0F
:102F80000000000008DF0008B0DE0008C0A800B59F
:102F90000D0A5B44454255475D203E3E200000003F
:102FA000436F6E6E65637420746F2073657276650F
:102FB00072207375636365737366756C210A000014
:102FC00063726561746520636F6E6E206661696C03
:102FD0006564210A00000000436F6E6E6563742013
:102FE0006661696C6564210A0000000008B5042070
:102FF000C30100900022024902A005F087F908BD34
:10300000A12E0008636C69656E74000070B50F4CEA
:103010000546207888B10EA0FFF7BEFC0DA0FFF793
:10302000BBFC00F09DF9D4E902012A4600F050FAF9
:103030002846BDE8704004F08FBB074A07A109A0ED
:10304000FFF7AAFC03A0FFF7A7FCFEE7040100209E
:10305000000000000D0A000068DE0008696E697457
:103060005F6F6B002825732920686173206173737B
:10307000657274206661696C6564206174202573D3
:103080002E0000002DE9F043244C8946A446D4E9E3
:10309000023794F801809CF802600146DCE9044C98
:1030A00000200546A444B8F1000F11D08EB91C4E83
:1030B000B069086076690120361FA64211D3B44575
:1030C0000FD3B9F1010F0CD9022001254E6008E0A1
:1030D0003EB19A4201D21A4603E0DE19964200D26E
:1030E00032461F44974216D91668331FF60710D090
:1030F000A3420ED39C450CD310280AD2484508D2CF
:10310000022803D115B14E689E4202D041F820300A
:10311000401C121DE6E7BDE8F0830000040100201A
:10312000F8C201202DE9F04F8DB00C460746202251
:103130005D4905A8FDF7FDF85C4ED6E902508146D1
:10314000307858B1707898B1574A59A1143A5BA0B9
:10315000FFF722FC61A0FFF71FFCFEE7524A60A1C7
:10316000143A56A0FFF718FC5CA0FFF715FCFEE729
:103170004FF0010A86F801A05BA0FFF70DFC57A0F5
:10318000FFF70AFC00F0ECF8DFF81CB1ABF1BC0B68
:10319000DBF82800FFF700FC50A0FFF7FDFB47F32A
:1031A0000010401C04F12008F07001D008F148081C
:1031B000A84503D305EB0900404501D286F802A0DB
:1031C00042464946284600F083F9B078474D00282A
:1031D0003ED1DBF82C00FFF7DFFB40A0FFF7DCFB64
:1031E00026682E6060686860A168A960E268EA608D
:1031F00023692B6163696B61A369AB61E369EB616F
:10320000DDE90734CDE90003CDE902140492DDE9DC
:103210000513324636A0FFF7BFFB30A0FFF7BCFB1B
:1032200001AE0B98EB690C9AA96986E80F006869F2
:1032300000900A9B2A692EA00999FFF7ADFB27A0F1
:10324000FFF7AAFB35A0FFF7A7FB24A0FFF7A4FB1D
:103250004248006845F8200F4048001D007828715A
:103260003E4810300068A8603C48401D0078287334
:103270003A481430006828613848801D0088A882C8
:10328000364808300068A86134480C300088E8618E
:10329000324818300088286200F04CFF404604F0A5
:1032A0005BFA0DB0BDE8F08F90DE0008040100204D
:1032B000216F6E5F6661756C7400000028257329AC
:1032C0002068617320617373657274206661696C34
:1032D00065642061742025732E0000000D0A000033
:1032E000696E69745F6F6B0000000000F8C2012016
:1032F000202025733A2025303878202025733A2065
:1033000025303878202025733A2025303878202041
:1033100025733A2025303878000000003D3D3D3DC2
:103320003D3D3D3D3D3D3D3D3D3D3D3D3D3D3D3DCD
:103330003D3D3D3D3D3D3D3D3D3D3D3D3D3D3D3DBD
:103340003D3D3D3D3D3D3D3D3D3D3D3D3D3D3D3DAD
:103350003D3D3D3D3D3D3D3D3D3D000024ED00E01A
:1033600010B50748074BA3F120020068A2F1200125
:10337000FFF712FBBDE8104003A0FFF70DBB0000F4
:10338000D4DD000848C201200D0A000010B5044633
:103390000420FEF717FD0A484FF47A7114FB01F17F
:1033A0000122446002804FF0E020026942F00202F4
:1033B00002614161016941F00101016110BD00003C
:1033C0001400002070B504460AF066FA01280CD0FB
:1033D000094D2888844203D3B4FBF0F009F026FCA1
:1033E0002888B4FBF0F100FB11444FF47A7060437D
:1033F000BDE8704000F002B81400002070B54FF036
:10340000E02500216C69094AAB6952685043AA69FA
:103410009A42FCD002D2A3EB020302E0A4EB020624
:103420003344194413468142F1D370BD1400002087
:1034300070B505460C46880702D007A0FFF7ACFA26
:1034400004F052FEA96809682160A9680C60BDE813
:10345000704004F069BE00006D656D705F66726556
:10346000653A206D656D2070726F7065726C7920A1
:10347000616C69676E65640070B5044604F034FEE3
:103480000546A06804685CB121680160A00702D00D
:1034900006A0FFF781FA284604F046FE204670BDDC
:1034A000284604F041FE002070BD00006D656D707F
:1034B0005F6D616C6C6F633A206D656D702070722A
:1034C0006F7065726C7920616C69676E656400006D
:1034D0002DE9F041064619481446194F82787518AF
:1034E0008AB1007908B1786900E0B8692146FFF730
:1034F00053FA14A0FFF750FAB44201D2344602E066
:10350000A54200D22C46F868FFF746FA0DA0FFF757
:1035100043FA08E021460CA02268FFF73DFA09A013
:10352000FFF73AFA241DA542F4D80EA0FFF734FAAB
:10353000BDE8F04103A0FFF72FBA0000040100200E
:10354000D4DD00080D0A00002020616464723A2076
:103550002530387820202020646174613A2025309D
:10356000387800003D3D3D3D3D3D3D3D3D3D3D3DCF
:103570003D3D3D3D3D3D3D3D3D3D3D3D3D3D3D3D7B
:103580003D3D3D3D3D3D3D3D000000002DE9F04706
:103590000F46040002D137A0FFF7FEF904F0A4FDA6
:1035A000002666602772217F41F00101217765784E
:1035B000667004F0B9FD636A7BB1002204212046E5
:1035C0009847636A4BB10022114620469847636AC8
:1035D0001BB10022022120469847384602F09EFB8C
:1035E000804604F11000814604F0FCFD18B141460C
:1035F000484604F0E9FD04F11400814604F0F2FDB0
:1036000018B14146484604F0DFFD012D0BD0042DD2
:1036100009D0032D07D0206A002828D0BDE8F04744
:1036200018A0FFF7B9B9207FC0F3800100F0FB00BC
:10363000207700291BD1206A10B919A0FFF7ACF937
:10364000206A042D08D00771206A05680C352846C9
:1036500004F056FE10B104E00671F5E717A0FFF77D
:103660009BF928462662BDE8F04704F029BEBDE874
:10367000F0870000636F6E6E20213D204E554C4C4C
:1036800000000000636F6E6E2D3E63757272656E92
:10369000745F6D7367203D3D204E554C4C0000001B
:1036A000636F6E6E2D3E63757272656E745F6D73BF
:1036B0006720213D204E554C4C000000696E61761C
:1036C0006C6964206F705F636F6D706C65746564A6
:1036D0005F73656D0000000070B5094E054600245B
:1036E00004EB440006EBC000017D29B18068A842CC
:1036F00002D1204600F0F0F8641C0A2CF0DB70BD0B
:10370000C8C001202DE9F74F84B04FF00A0B002408
:103710008046DA465F46D9460294019400944749B0
:1037200004EB440001EBC0060390357D0A2F18D04E
:103730002DB3012D04D0022D02D241A0FFF72CF9A8
:10374000B8F1000F11D0D8F80000716888420CD190
:10375000069810B1B168814207D1204607B0BDE894
:10376000F08F002DE5D1274609E0012D15D0022D5F
:1037700005D3708A0099884201D3A2460090641C48
:1037800024B20A2CCBDB059881074FF0FF30E5D43B
:103790000A2F15D017DA3C4635E02848039950F82F
:1037A00031000028708A05D002998842E7D3A146EB
:1037B0000290E4E701998842E1D3A3460190DEE755
:1037C0000599C907CAD05146BAF10A0F0ADA0C4660
:1037D0001A4801EB440150F8310060B128A0FFF70E
:1037E000DBF808E05946BBF10A0F03DB4946B9F1A3
:1037F0000A0FB3DA0C460A2C02DB27A0FFF7CCF83D
:10380000204600F069F80A2C02DB23A0FFF7C4F879
:103810000A4804EB440100EBC105287D10B123A048
:10382000FFF7BAF8B8F1000F02D0D8F800006860CE
:10383000002068820698A8608FE70000C8C00120B9
:103840007374617465203D3D204554484152505F7A
:1038500053544154455F50454E44494E47207C7C6B
:10386000207374617465203E3D2045544841525098
:103870005F53544154455F535441424C450000004E
:103880006172705F7461626C655B695D2E71203D71
:103890003D204E554C4C000069203C204152505F69
:1038A0005441424C455F53495A4500006172705F74
:1038B0007461626C655B695D2E7374617465203D33
:1038C0003D204554484152505F53544154455F4553
:1038D0004D5054590000000070B5074D00EB4004F6
:1038E000002655F8340018B103F0E0FC45F83460C8
:1038F00005EBC400067570BDC8C001202DE9F0437A
:1039000085B00D00074609D07C684FF48078208888
:10391000404537D12079062834D105E01BA0FFF7B8
:103920003BF805B0BDE8F083607904282AD16088AF
:10393000082827D1D4F80E000490A169686818B14E
:10394000814201D1012600E000260EB1012300E0F2
:10395000022304F10802914604A9284600F088FADF
:10396000E08840450ED16EB1022204ABCDE90232AF
:10397000291DCDE9001905F1220319464A462846BA
:1039800000F0B4F9384603F091FCCAE76E6574693B
:103990006620213D204E554C4C000000FEB51546DA
:1039A0000E46040002D13DA0FEF7F6FF16B93FA077
:1039B000FEF7F2FF15B940A0FEF7EEFF214628689A
:1039C00000F025FE08B1404B3FE02868C0F303112A
:1039D0000E2925D0A168636800EA01020B409A42D3
:1039E00008D080B2A0F57E41A93903D0E068B0B319
:1039F00004F10C05354B36491A7802EB420001EB15
:103A0000C000077D022F2ED38768A7422BD12F68D5
:103A10004068874227D13146204600F05BF8FEBD62
:103A200001208DF8040000208DF805005E208DF83F
:103A30000600687801AB00F07F008DF80700A878D9
:103A40008DF80800E8788DF809004FF400600090C8
:103A500004F122023146204600F0B6FAFEBDFFE72F
:103A60006FF00300FAE7002202EB420001EBC00016
:103A7000077D022F08D38768A74205D12F684068C9
:103A8000874201D11A70C6E7521CD2B20A2AEBD380
:103A900032462946204600F071F8DFE76E6574690A
:103AA0006620213D204E554C4C0000007120213DE8
:103AB000204E554C4C0000006970616464722021F6
:103AC0003D204E554C4C0000C8DD0008D8000020B9
:103AD000C8C001202DE9F8430646154688461A4815
:103AE00002EB450100EBC104207D022802D217A0A1
:103AF000FEF752FF144A05EB4501207D02EBC1059C
:103B00000C35022813D1608A0327B0F58E7F04D9C3
:103B1000211D304600F068F907E0B0F5877F06D335
:103B20002A46211D304600F065F900B927754FF48B
:103B3000006000902B4606F122024146304600F01C
:103B400043FABDE8F8830000C8C001206172705FCD
:103B50007461626C655B6172705F6964785D2E731D
:103B600074617465203E3D204554484152505F5376
:103B7000544154455F535441424C45002DE9FC5F8C
:103B80008246223001900F46086816464FF0FF34F7
:103B90004FF0000B514600F03AFD80B93868C0F391
:103BA00003110E290BD057B148B1524601213846B6
:103BB000FFF7A8FD050005D540B2BDE8FC9F6FF0FA
:103BC0000F00FAE77F2D02D331A0FEF7E5FE05F0E6
:103BD000FF09334909EB490801EBC805287D50B1BD
:103BE000012804D0022802D22EA0FEF7D5FEBBF198
:103BF000000F06D104E001202875C5F808A000E0F8
:103C000036B93946504600F0EFF80446002ED4D0BD
:103C1000287D234F02280ED32C494FF4006005F174
:103C20000C0381F80090009031465046019A00F054
:103C3000CBF904462AE0012828D1002534466089C2
:103C40002189884204D1206810B121A0FEF7A4FE8A
:103C5000207B400603D42468002CF0D13DB13246CD
:103C60004FF420710E2003F0FDF9064602E03046C5
:103C700003F006FC46B157F8380008B103F016FB14
:103C800047F83860002401E04FF0FF34204694E705
:103C900074797065206F766572666C6F77000000CE
:103CA000C8C001206172705F7461626C655B695DA0
:103CB0002E7374617465203D3D2050454E44494E3D
:103CC00047206F7220535441424C4500D8000020D9
:103CD0006E6F207061636B657420717565756573B7
:103CE00020616C6C6F776564210000002DE9FF4F47
:103CF00081B09846DDE90FA9DDF838B006004FF035
:103D0000000702D126A0FEF747FE4FF420721C21C7
:103D10000E2003F01DF805003ED068891C2802D251
:103D200023A0FEF739FE6C68119801F07FFBE0805C
:103D300096F82800062802D02A48FEF72DFED8F86B
:103D40000010A160B8F80400A081DAF80010C4F8EF
:103D50001210BAF80400E082DBF80000C4F80E008C
:103D6000D9F80000A0614FF48070208008206080A6
:103D7000062020710420607140F60600DDE9022370
:103D800000902946304600F01FF9284603F08EFACD
:103D9000384605B0BDE8F08F4FF0FF30F9E700007E
:103DA0006E6574696620213D204E554C4C00000024
:103DB000636865636B2074686174206669727374EC
:103DC00020706275662063616E20686F6C6420737A
:103DD0007472756374206574686172705F68647270
:103DE0000000000038E00008014A00F003B80000BD
:103DF000C8DD00087FB5064D031D0124CDE900355F
:103E0000CDE902141E331946FFF770FF04B070BDF0
:103E1000CEDD000870B5154D002404EB440005EB21
:103E2000C002117DF1B1508A401C80B25082B0F5C1
:103E3000967F0AD2012906D003290AD004290AD084
:103E400001290BD00EE0052808D32046FFF744FDDA
:103E500008E0042000E00220107503E0111D9068C6
:103E6000FFF7C2FF641C0A2CD7DB70BDC8C001205D
:103E7000F8B5044690F828001F4615460E46062859
:103E800002D01EA0FEF788FD9EB1306888B12146A1
:103E900000F0BDFB68B93078C0F303100E2808D0DD
:103EA000224639463046FFF72DFC002804DA40B29E
:103EB000F8BD6FF00F00F8BD194A00EB400102EBAE
:103EC000C1000223037584602B68C360AB88038242
:103ED0000023438252F8316076B142F831304FF41A
:103EE000006000902B4604F122023146204600F08B
:103EF0006BF8304603F0DAF90020F8BD6E6574699E
:103F0000662D3E6877616464725F6C656E203D3D2E
:103F1000204554485F4857414444525F4C454E0049
:103F2000C8C001202DE9F041044640890E270D4606
:103F30000E283CD9E07B18B995F82C00401CE073A2
:103F4000606801788689CA0714D0012905D0062245
:103F50001C49FCF720FA48B10CE0417851B980784F
:103F60005E2807D1607B40F0100002E0607B40F0EB
:103F700008006073082E03D0B6F5C16F17D10DE0AD
:103F800095F82900000712D53946204603F096FA25
:103F900068B92946204600F045FC10E095F8290054
:103FA000000704D53946204603F088FA18B12046A8
:103FB00003F07CF903E029462046FFF79FFC002030
:103FC000BDE8F081C8DD00082DE9F04104461F4638
:103FD00090460E46069801F029FA05460E21304615
:103FE00002F082FE18B16FF00100BDE8F081706848
:103FF000858139680160B9888180D8F80020C0F8CF
:104000000620B8F80410418194F82800062802D050
:1040100004A0FEF7C1FC31462046A269BDE8F0418C
:10402000104700006E657469662D3E6877616464B0
:10403000725F6C656E206D7573742062652036202A
:10404000666F722065746865726E65745F6F7574F3
:10405000707574210000000070B50446042001F062
:10406000D5FF050001D04CB10BE00FA0FEF794FC8A
:1040700010A0FEF791FC4FF0FF3070BD15A0FEF7C9
:104080008BFC7320E56184F82A00742084F82B00EF
:10409000144860611448A061204601F077F822348A
:1040A00000202C6070BD00000D0A5B4552525D205F
:1040B0003E3E200065746865726E657469665F696E
:1040C0006E69743A206F7574206F66206D656D6F30
:1040D00072790A006E6574696620213D204E554C48
:1040E0004C0000009D39000849530008104E04465A
:1040F0004FF0FF373946306809F094FA0128F9D1BA
:1041000008F048FC204601F0C1F8054608F07EFCA6
:10411000002DEFD008F03EFC22692146284690474A
:1041200010B1284603F0C2F808F070FCE2E7000086
:10413000E400002070B58C4D8C4C95F83800800759
:1041400005D5206BFEF728FC89A0FEF725FCA86B9F
:1041500040007DD595F82400F0B3C00705D0606B12
:10416000FEF71AFC82A0FEF717FC95F824008007E2
:1041700005D5A06BFEF710FC7DA0FEF70DFC95F8B1
:104180002400000705D5E06BFEF706FC78A0FEF7DB
:1041900003FC95F82400C00605D5206CFEF7FCFB57
:1041A00073A0FEF7F9FB95F82400800605D5606C36
:1041B000FEF7F2FB6EA0FEF7EFFB95F82400010678
:1041C0000DD5C10701D1800709D5A96AD4F88C00A3
:1041D000FEF7E2FB66A000E001E0FEF7DDFB95F8EC
:1041E0002C00B0B3C00705D0A06CFEF7D5FB60A0D3
:1041F000FEF7D2FB95F82C00800705D5E06CFEF7A2
:10420000CBFB5BA0FEF7C8FB95F82C00400705D55B
:10421000206DFEF7C1FB56A0FEF7BEFB95F82C0003
:10422000000705D5606DFEF7B7FB51A0FEF7B4FBA4
:1042300095F82C00C00605D5A06DFEF7ADFB4CA08F
:10424000FEF7AAFB95F82C00800608D5E06D01E08A
:104250004DE012E0FEF7A0FB45A0FEF79DFB95F8B0
:104260002C00010609D5800707D5296BD4F89000EA
:10427000FEF792FB3EA0FEF78FFBA88EB8B3C007F7
:1042800005D0206EFEF788FB39A0FEF785FB95F878
:104290003400800705D5606EFEF77EFB34A0FEF784
:1042A0007BFB95F83400400705D5A06EFEF774FB44
:1042B0002FA0FEF771FB95F83400000705D5E06EDE
:1042C000FEF76AFB2AA0FEF767FBA88EC00505D59E
:1042D000206FFEF761FB26A0FEF75EFBA88E80052F
:1042E00005D5606FFEF758FB21A0FEF755FBA86BC4
:1042F000002837DAE86B002834D0C00705D0A06F5B
:10430000FEF74AFB1AA0FEF747FB95F83C00800732
:1043100005D5E06FFEF740FB15A0FEF73DFB95F8D5
:104320003C00400706D5D4F88000FEF735FB10A00E
:10433000FEF732FB95F83C00000706D5D4F8840060
:10434000FEF72AFB0AA0FEF727FB95F83C00C00603
:1043500008D5D4F88800FEF71FFBBDE8704004A024
:10436000FEF71ABB70BD0000F8C20120D4DD0008C2
:104370000D0A000013B54FF47A7301226946024812
:10438000FDF758FE00981CBD800100200A4603215D
:1043900000F0C0B82DE9FE4F424A04468A46D2F8E2
:1043A000088098F800000007860E142E75D36089E7
:1043B000042872D36068017800296ED008296CD176
:1043C000506902F11407C0F303110E2965D091461C
:1043D000116800F01CF900285FD1208908285CD3FF
:1043E000204600F0EFF8002857D106F10E010D46E7
:1043F000204602F079FC60B32089811989B2884295
:104400004BD84FF420720E2002F0A2FC050044D0DD
:10441000698906F10800814212D332464146686834
:10442000FBF787FF3146284603F048F818B11EA075
:10443000FEF7B2FA04E02146284602F031FE18B138
:10444000284602F033FF28E0204602F02FFF2C46DA
:1044500008E02946204603F031F818B120A0FEF705
:104460009BFA1AE031462046656802F03DFCA0B98F
:1044700060683968FF22C160D9F81010016100211D
:10448000297069800272418101228DE806040A4682
:10449000FF233946204600F095FA2046BDE8FE4F3E
:1044A00002F004BF4863002069636D705F696E703D
:1044B00075743A206D6F76696E6720722D3E70615B
:1044C000796C6F616420746F2069636D702068651A
:1044D00061646572206661696C65640A00000000B1
:1044E00069636D705F696E7075743A20726573747C
:1044F0006F72696E67206F726967696E616C207098
:104500002D3E7061796C6F6164206661696C6564D1
:104510000A0000002DE9FF479146884606464FF401
:1045200020722421222002F013FC05002DD068897E
:10453000242802D216A0FEF72FFA6C6877681C2296
:1045400084F8008084F801904FF00008A4F80480FB
:10455000A4F80680686871680830FBF7EAFEF8681E
:10456000039003A800F0D8FB60B1A4F802800122F8
:10457000CDF80080CDE90120FF2303AA00212846C1
:1045800000F020FA284602F091FEBDE8FF87000007
:10459000636865636B207468617420666972737404
:1045A00020706275662063616E20686F6C6420699C
:1045B000636D70206D657373616765000A460B213A
:1045C000FFF7A8BF70B500260546344612E069899A
:1045D000686801F0E9FB2044010C11FA80F4A87A24
:1045E000C00706D08EB10026E0B2C4F3072141EA2D
:1045F00000242D68002DEAD126B1E0B2C4F30721D2
:1046000041EA0024E04380B270BD0126ECE7421C81
:1046100012D088B191F8292092070BD54A688242BE
:1046200008D0896800EA01030A40934202D101439D
:10463000491C01D000207047012070472DE9F74F39
:1046400088B00446099800271426008CBD1F143832
:10465000C11700EB5170C0F3CF0003906068069063
:10466000017801F00F01052903D028460BB0BDE801
:10467000F08F6189142903D256A0FEF78DF9F4E773
:10468000C08800F0D3FEC0F30C0100F4005002918A
:104690000790208914381FFA80F994E003984FF6A8
:1046A000FF7101EAC0004946484500D90846049018
:1046B0004FF4207214210E2002F04AFB5FEA000B37
:1046C00051D0BBF80A00142802D249A0FEF764F9C1
:1046D0001422DBF804000699FBF72BFEDBF804003C
:1046E0000590049D31E06089811B8FB2B04202D2F7
:1046F00047A0FEF751F9BD4200D22F461FB3052057
:1047000001F06CFE5FEA00082AD06068434630443E
:10471000CDE9000741223946002002F01DFC5FEA86
:10472000000A23D0204602F0ABFE3D49C8E904143C
:104730005146584602F02CFCE81B05042D0C06D00F
:1047400000262468CFE724680026002DCBD1F0197D
:1047500086B20998008C143848450BDB01210AE029
:10476000584602F0A3FD4FF0FF307FE7404600F0CF
:1047700003FBF5E700210298C0F30C0009B107998B
:1047800009B140F4005000F051FE0599C88004982A
:10479000143080B200F04AFE059948800598002147
:1047A0004181099859460A9A43699847584602F048
:1047B0007DFD0499A9EB01001FFA80F9DDE90201F2
:1047C000084480B20290B9F1000F7FF467AF002077
:1047D0004CE700006970345F6672616728293A20EF
:1047E0007062756620746F6F2073686F727400005A
:1047F00074686973206E65656473206120706275EA
:104800006620696E206F6E652070696563652100A2
:10481000702D3E6C656E203E3D20706F6666000018
:10482000615100082DE9F047456807460E46287893
:104830000421B1EB101F03D0384602F037FD77E0BA
:1048400000074FEA9068688800F0F0FD0446388958
:10485000A04203D92146384602F0B4FD798941458A
:10486000EAD33889A042E7D3B8F1140FE4D3DFF8D4
:1048700020912869C9F81400EA68C0F30310C9F848
:1048800010200E2805D0304600F086F850B134468E
:1048900019E096F82900C00702D070680028F6D108
:1048A000002410E099F8140000247F280BD0394828
:1048B000046806E0B44203D0204600F06DF810B959
:1048C0002468002CF6D13146D9F81000FFF79FFE7E
:1048D0000028B1D199F81000C0F303100E28ABD016
:1048E000002CA9D0E88830F0C00005D0384600F090
:1048F000FFF807001CD07D68C9F80850C9E90046D8
:10490000297838460907890EA9F80C10414602F0AB
:10491000D5FD687A012818D0062811D011280AD0B0
:104920004D462146D9F81400FFF771FE90B11EE004
:104930000020BDE8F0873146384607F073FE19E0E5
:104940003146384604F026FB14E031463846FFF77E
:1049500021FD0FE0287DC0F303100E2807D041464B
:10496000384602F017FD02213846FFF70FFD3846A2
:1049700002F09CFC0021C9F80010C9F80410C9F825
:104980000810A9F80C10C9F81010C9F81410CFE7D6
:10499000486300207800002010B590F82910C9075E
:1049A0000CD0416851B1064A52698A4204D001468E
:1049B0001046FFF72CFE08B1012010BD002010BDED
:1049C00048630020FEB5DDE90954089E1AB109B11B
:1049D0000F6807B9211D0096CDE9015400F002F8D7
:1049E000FEBD00002DE9F84F0546DDE90BA8807BF0
:1049F000DDF828B01F4616468946012802D02BA0B4
:104A0000FDF7CAFF6FF0010486B31421284602F0B7
:104A10006BF960BB68896C68142802D226A0FDF788
:104A2000BBFF277284F809A0306820614520207000
:104A300084F801B0288900F0F9FC2B4F60804FF01A
:104A4000000AA4F806A0388800F0F0FCA08038889E
:104A5000401C3880B9F1000F05D0D9F80000E060A3
:104A6000A4F80AA00EE021480068F8E700E002E0A0
:104A70006889142802D22046BDE8F88F68686E461F
:104A800000690090B8F8200040B12989814205D919
:104A9000324641462846FFF7D1FDEDE7D8F81430FD
:104AA0004046324629469847E6E70000702D3E72A0
:104AB0006566203D3D203100636865636B20746846
:104AC0006174206669727374207062756620636118
:104AD0006E20686F6C6420737472756374206970E3
:104AE0005F68647200000000DA000020C4DD000886
:104AF0002DE9F05F44688346207800F00F00052818
:104B00007ED1E08800F092FCC004070C608800F0C1
:104B10008DFC21780907890E814271D8401A1FFA4D
:104B200080F8584602F094FA6B4D064628883044C7
:104B30000A2809D93146204600F0BAFA00285FD089
:104B4000288830440A28E8D8A9466D684FF0000A42
:104B50000CE06869E168884207D1A8692169884248
:104B600003D1A889A188884203D02D68002DF0D1F7
:104B700006E02DB1E08800F059FCC00425D02FE0FC
:104B8000042001F02BFC05000AD13146204600F03C
:104B90008FFAB04217DB042001F020FC050012D090
:104BA0002021FBF7EDFB0F20E877D9F804102960EE
:104BB0001422214605F10800C9F80450FBF7B9FB9F
:104BC000002D1DD00CE05546FAE7E88900F02EFCD8
:104BD000C00405D01422214605F10800FBF7A9FB0B
:104BE000A07940F34014641C08D007EB080080B2A1
:104BF000B8425FD34FF6EB7188425BD8224600E0A3
:104C000065E05946284600F0C9F8411C52D0B9F871
:104C100000203244A9F8002034B107EB0801A98331
:104C2000A97F41F00101A977012841D1A88B142265
:104C3000143087B2686805F1080146683046346868
:104C4000FBF777FB384600F0F1FB7080A6F806A072
:104C5000A6F80AA06E6809E014212046676802F0F1
:104C60002DFC2146304602F093F93C68002CF3D12C
:104C7000D9F804104C468D4205D1002105E00868A2
:104C8000A84202D001460029F9D1284600F060F977
:104C9000304602F0DDF921880546A94202D20FA074
:104CA000FDF77AFE2088401B20803046BDE8F09F4B
:104CB0000020FBE7686850B9D9F80400854202D0AB
:104CC0000DA0FDF769FE0021284600F041F9584685
:104CD00002F0ECFAECE70000DC00002069705F7283
:104CE000656173735F70627566636F756E74203E85
:104CF0003D20636C656E00006E6F74206669727390
:104D000074616C74686F756768206A757374206568
:104D10006E7175657565640070B50546144813E0DD
:104D200090F82910CA070FD04A070DD543685BB128
:104D300084682A68234002EA04069E4216D0890746
:104D400002D4C1688A4211D000680028E8D109481D
:104D5000006850B190F82910CA0706D0490704D559
:104D6000416811B129787F2900D1002070BD000071
:104D7000780000207C00002010B5040002D104A0BF
:104D8000FDF70AFE2146BDE81040052001F0E4BA17
:104D90007020213D204E554C4C0000002DE9F05F65
:104DA0004C6806469346884600250127608800F037
:104DB0003DFB21784FF0FF3A0907890E814233D835
:104DC000A0EB0109E08800F031FBC004D8F80440F2
:104DD000020C0020206002EB09001FFA80FCA28078
:104DE000A4F806C094451FD3716827E048688388FB
:104DF0009A4215D2216065B1EB889A4214D380881B
:104E0000844511D8C5F80080A088834206D00027C9
:104E100004E08088844507D8C6F8048081B126E084
:104E200002D0C1888A4202D25046BDE8F09F1DB12F
:104E3000E988994200D00027016805460029D5D1AC
:104E400075B1E888A188884202D91EA0FDF7A4FDAB
:104E5000C5F80080E888A188884208D0002706E0CD
:104E6000706810B11FA0FDF797FDC6F80480BBF174
:104E7000000F02D1B07FC007D7D007B37268F2B17C
:104E800050688088D8B92068214628B14468C8880D
:104E9000A1888842F7D012E08FB112B91FA0FDF7A8
:104EA0007BFD70684068A04202D11CA0FDF774FD34
:104EB000206810B11DA0FDF76FFD0120B5E70020AF
:104EC000B3E70000636865636B20667261676D65B8
:104ED0006E747320646F6E2774206F7665726C61D8
:104EE000700000006E6F2070726576696F757320B8
:104EF000667261676D656E742C2074686973206DCD
:104F000075737420626520746865206669727374B5
:104F100020667261676D656E7421000073616E6951
:104F2000747920636865636B0000000076616C69CA
:104F3000646174655F646174616772616D3A6E6526
:104F400078745F70627566213D4E554C4C000000D0
:104F500070B5044609480D464168A14202D1216856
:104F6000416005E015B906A0FDF716FD2068286030
:104F70002146BDE87040042001F0EEB9DC000020BD
:104F800073616E69747920636865636B206C696E08
:104F90006B6564206C697374000000002DE9F047B4
:104FA000064600250F46B14202D127A0FDF7F4FCCA
:104FB0002FB13868B04202D026A0FDF7EDFC74682E
:104FC0004FF4803860688188B9B900687060142235
:104FD00006F108016068FBF7ACF901212046FFF7F4
:104FE000EDFA204602F034F80546404502D31EA0F3
:104FF000FDF7D2FC204602F059F9C14674680FE073
:105000006068A0460468404602F022F805444D4519
:1050100002D315A0FDF7C0FCADB2404602F046F940
:10502000002CEDD139463046FFF792FF164C208810
:10503000A84202D215A0FDF7AFFC2088401B2080BB
:105040002846BDE8F08700007072657620213D207B
:1050500069707200707265762D3E6E657874203DC1
:105060003D2069707200000070627566735F667241
:10507000656564202B20636C656E203C3D20307894
:105080006666666600000000DC00002069705F72E2
:10509000656173735F70627566636F756E74203ED1
:1050A0003D2070627566735F66726565640000001E
:1050B0002DE9F047DFF878900F46054600260022DC
:1050C000114613461446D9F8040022E0D0F814C063
:1050D000D5F80C80C4450BD1D0F818C0D5F8108095
:1050E000C44505D1B0F80CC0B5F80480C44509D05A
:1050F000641C2AB190F81FC092F81F80C44501D8E3
:1051000002460B46D0F800C0BCF1000F00D00146AB
:1051100060460028DAD122B119461046FFF73EFF5B
:105120000644BE4201DA012CC9DC3046BDE8F087F6
:10513000DC00002070B50948002544680BE0E07FE2
:1051400020B1401EE0772546246804E0204624680C
:105150002946FFF723FF002CF1D170BDDC000020B1
:1051600010B5040002D106A0FDF716FC606908B175
:1051700002F09CF82046BDE81040FFF7FDBD00009E
:1051800070637220213D204E554C4C0038B50446CA
:10519000FBF790F928B994F8290040F0040084F84E
:1051A0002900062084F8280026484169097884F8F7
:1051B00022104169497884F823104169897884F87C
:1051C00024104169C97884F825104169097984F867
:1051D000261040690021407984F8270040F2DC5015
:1051E000208494F8290040F00A0084F8290028203F
:1051F00007F094FF1449086013480021001D03F0D4
:105200002FF828B911A0FDF7C7FB14A0FDF7C4FBC8
:105210000D483221083002F0C5FF28B90BA0FDF778
:10522000BBFB12A0FDF7B8FB032000904FF4806396
:105230002246134913A003F069F8BDE8384001483D
:10524000FBF706BEC0010020E40000200D0A5B440D
:10525000454255475D203E3E200000007379735F54
:1052600073656D5F6E6577206F6B0A007379735F8E
:105270006D626F785F6E6577206F6B0A00000000CB
:10528000ED400008455448494E0000002DE9F84F14
:105290000020044600902B48FBF742FB10B1002091
:1052A000BDE8F88F2748818FD0F840900904090C99
:1052B0002ED04FF4C172002001F04AFD009038B3A7
:1052C0002048009D40F2F45BD0F830806F890026C2
:1052D0000FE0A4F2F4525242FBF72BF8D8F80C007E
:1052E0008046D0F80890361BAAF2F457002406F244
:1052F000F456686807EB040ADA4509EB0401304408
:10530000E7D83A46FBF715F82D683C44002DDDD16F
:105310000C4A0021106B05E0036843F00043036072
:10532000C068491C936B8B42F6D8002191631068CA
:1053300000F580504269120602D5802242618160E8
:105340000098ADE7C00100202DE9F05F26484FF03E
:1053500000090D46C66A4C46D6F808A030680028F9
:105360000DDB2CE0B5F80A80002717E0A4F2F45218
:105370005242FAF7DEFFF6683068002802DA6FF072
:10538000070023E0D6F808A03F1BA9EB0400ABF20E
:10539000F45800F2F459002407F2F45708EB040B18
:1053A00040F2F45168688B4500EB07010AEB0400FA
:1053B000DCD84246FAF7BDFF2D684444C144002DB5
:1053C000D0D149460848FBF785FD00200649096809
:1053D00001F580514A69920603D520224A610022D4
:1053E0004A60BDE8F09F0000C001002010B50446EF
:1053F0004068804702F024FF094A216852688B18F0
:105400001A1AB2F1004F03D308442246054902E0BC
:10541000044922461846BDE8104002F0D5BF0000FE
:10542000C4000020ED53000800BA704740BA70472E
:1054300010B502F09BFE00F0B5FD00F0ABFF01F0EF
:10544000A9FB07F0EDF803F0A3FDBDE8104003F061
:1054500007B8000070B5016804466FF00A034A6897
:105460004878002A41D00A780125B5EB121F3CD1BB
:10547000227A032A01D0022837D0032835D0012808
:1054800030D0D00702D0084601F08AF82068006AC0
:1054900010B117A0FDF780FA216804204870206839
:1054A00000210462206800F037F800281CD0206832
:1054B0004078042802D015A0FDF76EFA154802F0D6
:1054C000B9FE206800210C3002F013FE114802F0F2
:1054D0008EFE20684078002806D0BDE870400BA002
:1054E000FDF75ABAFB20207170BD237170BD00001A
:1054F000616C72656164792077726974696E672086
:105500006F7220636C6F73696E67000073746174EF
:10551000652100002C0000202DE9F0478A46040098
:1055200002D15EA0FDF738FA20780121B1EB101FFF
:1055300002D05EA0FDF730FA6078042802D063A0A4
:10554000FDF72AFA606810B969A0FDF725FA206A0C
:1055500010B96CA0FDF720FA206A6768007A00F0A5
:10556000010900F0020803280FD0B9F1000F06D09E
:10557000387D052809D0062807D0082805D0B8F1BD
:10558000000F08D0B87EC00605D501250021384699
:1055900003F0C8F800E00025387D01281FD0B9F1DC
:1055A000000F07D00021384605F062FB0021384685
:1055B00003F01DF8B8F1000F03D00021384605F0C4
:1055C000F1FD95B100221146384604F037FE002166
:1055D000384603F0EFFB384603F0A8F80AE0002154
:1055E000384603F004F8002DF5D1424649463846C6
:1055F00005F0F8FD06000DD0701C0BD1206A407A32
:1056000018B1387D012830D032E01DB1384602F0A3
:10561000EBFF0026206A0768067100202062607098
:105620000C37CEB935B16060636A1BB1002204212A
:1056300020469847B9F1000F05D0636A1BB10022DC
:10564000114620469847B8F1000F05D0636A1BB198
:105650000022022120469847BAF1000F02D03846B6
:1056600002F02EFE0020BDE8F0872DA0FDF794F992
:10567000B8F1000F03D03349384605F093FD0122FD
:105680003149384604F0DAFD3049384603F092FBE0
:105690002146384603F046F83046E4E7696E766105
:1056A0006C696420636F6E6E00000000746869733B
:1056B00020697320666F7220746370206E65746356
:1056C0006F6E6E73206F6E6C79000000636F6E6E8C
:1056D000206D75737420626520696E207374617427
:1056E00065204E4554434F4E4E5F434C4F5345004B
:1056F00070636220616C726561647920636C6F73A2
:1057000065640000636F6E6E2D3E63757272656E28
:10571000745F6D736720213D204E554C4C00000096
:10572000436C6F73696E672061206C697374656E7A
:1057300020706362206D6179206E6F7420666169EC
:105740006C210000D97F0008DD7600088D35000847
:1057500010B50446006843686BB1017801F0F001B0
:10576000102911D0202909D02AA0FDF715F96FF0D2
:105770000500207110BD6FF00E00FAE7A2891846EF
:10578000A16806F001FFF4E74178032903D029B1AD
:105790006FF00900EDE76FF00800EAE702F054FC53
:1057A0002068A289A1684068204B03F0C5F8002852
:1057B000DFD120680322017F42702068C1F34001DD
:1057C0000029017F05D041F0040101776FF004004A
:1057D000CFE701F0FB010177206804622068407880
:1057E000032802D012A0FDF7D7F8134802F022FDDB
:1057F000206800210C3002F07CFC0F4802F0F7FC1E
:10580000206840780328B5D1BDE8104008A0FDF716
:10581000C3B80000496E76616C6964206E6574637C
:105820006F6E6E2074797065000000003D580008AE
:1058300073746174652100002C00002070B5164659
:1058400004004FF0000508D06078032802D01EA0A5
:10585000FDF7A2F8206A18B10AE06FF0050070BDEC
:10586000207F400708D420A0FDF796F8206A18B1E1
:105870000671206A05680C3520780121B1EB101FF4
:1058800003D116B9204602F0DFFB207F40F38006EB
:1058900000F0FB002077761C00D02DB956EA0500F9
:1058A00002D021A0FDF778F8002020626070636AC2
:1058B0001BB1002202212046984716B1284602F06B
:1058C000FFFC002070BD0000636F6E6E2D3E737490
:1058D000617465203D3D204E4554434F4E4E5F431D
:1058E0004F4E4E454354000028636F6E6E2D3E634D
:1058F000757272656E745F6D736720213D204E5521
:105900004C4C29207C7C20636F6E6E2D3E696E5F4F
:105910006E6F6E5F626C6F636B696E675F636F6EF5
:105920006E65637400000000626C6F636B696E6784
:1059300020636F6E6E656374207374617465206597
:1059400072726F72000000000021017101684968E5
:10595000002901D101F0E6BD7047000010B50446F2
:10596000006800F06BFE002840D120680121027819
:10597000B1EB121F38D142780AB1881F36E0426875
:10598000002A2ED041702068006A10B118A0FDF7DF
:1059900003F8606910B91DA0FCF7FEFF2068002124
:1059A0000462206800F042F8002820D02068407887
:1059B000012802D01AA0FCF7EFFF1B4802F03AFCC6
:1059C000206800210C3002F094FB174802F00FFC15
:1059D0002068407801280AD1BDE8104010A0FCF7EB
:1059E000DBBF6FF00A0001E06FF00500207110BD11
:1059F000616C72656164792077726974696E672081
:105A00006F7220636C6F73696E6700006D73672D32
:105A10003E6D73672E772E6C656E20213D20300021
:105A200073746174652100002C0000202DE9F34F90
:105A300081B004004FF0000A02D17AA0FCF7ACFF5D
:105A40006078012802D07BA0FCF7A6FF206A10B97D
:105A500080A0FCF7A1FF606810B985A0FCF79CFF4F
:105A6000206A81694069814202D387A0FCF794FFD4
:105A7000206A808910B994A0FCF78EFF206A077F06
:105A8000207F800701D4780701D5012000E00020A5
:105A900080464FF6FF7B206A4FF4803981680069A9
:105AA0000A68024400924A68161A4E4503D35D46BE
:105AB00047F0020700E0B5B26168B1F86410A9428E
:105AC0000ED20D46B8F1000F08D04DB9206A80699A
:105AD00008B100264AE06FF0060647E047F00207EB
