:020000040800F2
:10000000F0C40120E10100086B220008050200088D
:100010006922000891040008E7270008000000009A
:100020000000000000000000000000005D23000848
:10003000BD040008000000005B2300085F230008E7
:10004000FB010008FB010008FB010008FB010008A0
:10005000FB010008FB010008FB010008FB01000890
:10006000FB010008FB010008FB010008FB01000880
:10007000FB010008FB010008FB010008FB01000870
:10008000FB010008FB010008FB010008FB01000860
:10009000FB010008FB010008FB010008FB01000850
:1000A000FB010008FB010008FB010008FB01000840
:1000B000FB010008FB010008FB010008FB01000830
:1000C000FB010008FB010008FB010008FB01000820
:1000D000FB010008FB010008FB010008FB01000810
:1000E000FB010008FB010008FB010008FB01000800
:1000F000FB010008FB010008FB010008FB010008F0
:10010000FB010008FB010008FB010008FB010008DF
:10011000FB010008FB010008FB010008FB010008CF
:10012000FB010008FB010008FB010008FB010008BF
:10013000FB01000811050008FB010008FB01000895
:10014000FB010008FB010008FB010008FB0100089F
:10015000FB010008FB010008FB010008FB0100088F
:10016000FB010008FB010008FB010008FB0100087F
:10017000FB010008FB010008FB0100080000000073
:10018000FB010008FB010008FB010008FB0100085F
:10019000FB010008FB010008FB010008FB0100084F
:1001A000FB010008FB010008FB010008DFF80CD090
:1001B00000F0BEF800480047A9610008F0C4012023
:1001C000EFF308807047EFF3098070476846704787
:1001D00030BF72B6704762B6704780F308887047C8
:1001E0000648804706480047FEE7FEE7FEE7FEE7D1
:1001F000FEE7FEE7FEE7FEE7FEE7FEE7ED23000889
:10020000AD0100087046694602F0FEFDFFF7FEFFF3
:100210002DE9F05F0546002092469B46884606463B
:10022000814640241BE0284641464746224600F0CE
:100230006EF853465A46C01A914110D311461846DB
:10024000224600F055F82D1A67EB01084F4622466A
:100250000120002100F04CF817EB00094E41201E50
:10026000A4F10104DFDC484631462A464346BDE896
:10027000F09F10B5431A934209D28318881803E0FF
:1002800010F8011D03F8011D521EF9D210BD40EAFD
:1002900001039B0703D009E008C9121F08C0042A04
:1002A000FAD203E011F8013B00F8013B521EF9D2EB
:1002B00010BDD2B201E000F8012B491EFBD27047FD
:1002C0000022F6E710B513460A4604461946FFF722
:1002D000F0FF204610BD30B504460020034600E084
:1002E0005B1C934203D2E05CCD5C401BF8D030BD78
:1002F000202A04DB203A00FA02F1002070479140E6
:10030000C2F1200320FA03F3194390407047202ADA
:1003100004DB203A21FA02F00021704721FA02F3AF
:10032000D040C2F1200291400843194670470000B6
:10033000064C074D06E0E06840F0010394E8070032
:1003400098471034AC42F6D3FFF734FFECBA0008FC
:100350000CBB000810B500F0A3FF00F071F902F02B
:1003600001F800F097F8BDE8104001A002F03CBA97
:100370002D2D2D2D2D2D2D2D2D2D2D204C776970D2
:100380002064656D6F202D2D2D2D2D2D2D2D2D2DC6
:100390002D2D0A001CB5FFF71CFF0121072001F0DD
:1003A000B7FF642002F06EFE0021072001F0B0FFCD
:1003B000642002F067FEFFF70EFF022000218DF897
:1003C00000008DF801101B488DF802108DF8041004
:1003D0008DF803108DF80510154A02600122930371
:1003E000C0E90123D302C3600182C0F814D0C0E980
:1003F0000621D105016200F071FA04000EA013D0AD
:1004000002F0F2F910A002F0EFF90823154A16499C
:10041000084800F096F9154A0823A2F5007105482E
:1004200000F056F920461CBD02F0DEF910A0EAE704
:10043000008002406C0100200D0A5B444542554794
:100440005D203E3E20000000657468206861726493
:100450007761726520696E6974206661696C642ECB
:100460002E2E0A0054330020B4020020B4030020D2
:1004700065746820686172647761726520696E696D
:1004800074207375636573732E2E2E0A00000000AE
:10049000FEE700000848074901604FF4E131416080
:1004A00000218160C160016181610C21416101F025
:1004B00023BC0000001001402C0100207047000008
:1004C000064908B509684FF4FA52B1FBF2F141430D
:1004D000009100BF491E0091FBD208BD0000002022
:1004E00038B50446006800F58050816941F48011F8
:1004F0008161206800F58050806900900120FFF73D
:10050000DFFF2068009900F58050816138BD000050
:10051000014800F0A6B900006C0100202DE9F0416F
:10052000044621B14FF40060E060C000A060E069C3
:100530000026002861D035462068402702683A49E5
:100540000A40D4E902131943294341F400711143CD
:10055000016020680568012000F0A8F820680560A7
:100560002068476020684568012000F09FF82068F7
:100570004560206886602068C660206881694FF603
:100580004172114041F0800181612068856901203C
:1005900000F08CF8206885612068C6612068C56914
:1005A000012000F083F82068C561206800F58050C4
:1005B00081691E4A11401E4A0A438261206800F583
:1005C00080508569012000F071F8206800F58050A6
:1005D00085612068174900F580500160206800F5AA
:1005E00080500568012000F061F8206800F5805017
:1005F0000560A069012803D009E04FF480659BE7FE
:10060000206800F58050C1690B4A1143C1616069DF
:100610000A4A818811640178D0F8010041EA00207B
:100620005064BDE8F08100000F8120FF233FDEF819
:10063000040020028020C10240000100008002402E
:10064000194808B5016841F080010160016801F0B6
:1006500080010091016841F004010160016801F02E
:1006600004010091016841F001010160016801F09D
:1006700001010091016841F002010160016801F08F
:1006800002010091016841F040010160016801F040
:1006900040010091016841F480710160006800F43C
:1006A0008070009008BD00003038024070B50446EC
:1006B00000F0E8FD0546601C02D0044800780444C0
:1006C00000F0E0FD401BA042FAD370BD0400002002
:1006D0002DE9F04390F845500024012D0DD04FF046
:1006E000010980F84590022580F8445044F2F45CFA
:1006F0004FF000485F1E816216E00220BDE8F083E3
:1007000001EB4415C5F80080C4EBC41606EB4606A1
:1007100002EB8606C5E901C6BC4203D205F12006FC
:10072000EE6000E0E960641C9C42E9D3026802F5D7
:100730008052D16080F84490002180F8451008462E
:10074000DCE72DE9F04390F845400025012C0BD063
:100750004FF0010C80F845C0022480F844404FF46B
:1007600080195F1EC1621BE00220BDE8F08301EB2F
:100770004514C4F80090C5EBC51606EB460602EB1F
:100780008606A660C6691EB9266846F4400626603D
:10079000BD4203D204F12006E66000E0E1606D1C7A
:1007A0009D42E4D3026802F58052116180F844C092
:1007B000002180F845100846D7E7000010B504A0D6
:1007C00002F012F8BDE8104004A002F00DB80000DD
:1007D0000D0A5B4552525D203E3E20006574682044
:1007E0006572720A0000000010B590F845100129EA
:1007F00013D0012380F84530022180F84410816A2B
:100800000A680024002A27DB0A68D20518D5826B03
:10081000521C8263012A02D002E0022010BD016353
:1008200041630A68C2F30D42121FC263026B9268F1
:100830000264C96840F8281F03774477002010BD80
:100840000A68920503D58363C0E90C1402E0826B49
:10085000521C8263C968816200F8443F44700120E1
:1008600010BD70B50446006800F5805041694FF036
:10087000000649064FF0010508D5204600F034FA7D
:100880002068402100F58050416109E04069C007BF
:100890000AD0204600F0F4FA206800F58050456147
:1008A00084F8445084F8456020684FF4803100F5A6
:1008B00080504161206800F58050406900040CD5EB
:1008C0002046FFF77BFF20684FF4004100F5805081
:1008D000416184F8445084F8456070BD2DE9FC5FA7
:1008E0004FF000060400B346009624D0606801284B
:1008F00004D018B1C02184A002F0E0F9A06928B1A9
:10090000012803D0C12180A002F0D8F9E06928B104
:10091000012803D0C2217CA002F0D0F9206A30B1B6
:10092000B0F5000F03D0C32177A002F0C7F994F807
:10093000440018B107E00120BDE8FC9F84F8456041
:10094000204600F013F97F48016841F480410160BE
:10095000006800F4804001907B48016821F40001A8
:1009600001600168226A11430160206800F580502F
:10097000016841F00101016000F084FC05464FF47C
:10098000FA7708E000F07EFC401BB84203D9032050
:1009900004F8440F6DE0206800F580500068C0073F
:1009A000F0D12068006920F01C0500F0E3FE6749E3
:1009B000674A0144914202D245F0080516E06549B4
:1009C000654A0144914202D245F00C050EE06349AC
:1009D000634A0144914209D362490844624988420A
:1009E00002D245F0040501E045F0100520680561DC
:1009F0004FF400420021204600F044FA012500286F
:100A00006FD1FF20FFF752FE60684FF400694FF48A
:100A1000804A88B300F036FC804641F288376A4647
:100A20000121204600F0F8F800F02CFCA0EB0800B3
:100A3000B84218D800984007F1D54FF480520021F1
:100A4000204600F01FFA00284BD100F01BFC804626
:100A50006A460121204600F0DFF800F013FCA0EB0D
:100A60000800B84209D901212046FFF757FD04F8D4
:100A7000445F032066705FE716E000988006E7D5C4
:100A80006A461F21204600F0C7F850BB0098C106F7
:100A900002D5C4F80C9000E0E660400701D5A660DE
:100AA00029E0C4F808A026E0A06830B1504504D081
:100AB0004FF4CD7114A002F001F9E068484505D06B
:100AC00020B140F29B1110A002F0F8F8E068A16894
:100AD000C00840EA510082B20021204600F0D2F95D
:100AE00030B101212046FFF719FD84F8445022E778
:100AF000FF20FFF7DBFD59462046FFF70FFD84F886
:100B00004450002018E700002E2E5C4C6962726190
:100B1000726965735C53544D3332463478785F485C
:100B2000414C5F4472697665725C5372635C7374A6
:100B30006D3332663478785F68616C5F6574682EF7
:100B400063000000443802400438014000D3CEFE68
:100B5000C0E1E40040F1E9FD40787D0100796CFCE2
:100B6000005A6202001F0AFA80F0FA02F0B500682B
:100B7000234987B0884240D1322002240025032631
:100B80000B278DE8F10069461E4800F0DFF986204A
:100B90008DE8F10069461C4800F0D8F9A0028DE804
:100BA000F1006946194800F0D1F970038DE8F100B1
:100BB0006946174800F0CAF9002206213D2000F0DE
:100BC000DDFB3D2000F0A8FB1248016841F00071F8
:100BD0000160016801F000710591016841F08061D8
:100BE0000160016801F080610591016841F00061D8
:100BF0000160006800F00060059007B0F0BD0000E3
:100C00000080024000080240000002400004024050
:100C100000180240303802402DE9F0470446008AAF
:100C200091460D46202804D94FF485611FA002F09B
:100C300045F894F8440082281DD0822084F84400AE
:100C400020680169228A4FF6FF7301F01C0103EA54
:100C5000C2220A434FF4F86101EA8511114321F0E1
:100C6000020141F00105056100F00CFB0646012779
:100C70004FF480380FE00220BDE8F08700F002FB5F
:100C8000801B404505D304F8447F0020607003209A
:100C9000F2E720680569E807F0D12068406981B271
:100CA000C9F8001084F844700020E5E72E2E5C4C53
:100CB00069627261726965735C53544D33324634B4
:100CC00078785F48414C5F4472697665725C537214
:100CD000635C73746D3332663478785F68616C5F1F
:100CE0006574682E63000000014901200870704798
:100CF00010000020F8B5044690F84500012839D0CE
:100D0000012584F84550022084F84400206800261C
:100D1000016841F0080101602068006800902846E1
:100D2000FFF7CEFB2168009808602068016841F059
:100D3000040101602068006800900120FFF7C0FBFB
:100D40002168009808602046FFF7CAFB206800F57C
:100D50008050816941F400518161206800F5805024
:100D6000816941F00201816184F8445084F8456052
:100D70000020F8BD0220F8BDF0B590F84530002203
:100D8000012B11D0012780F84570022380F84430F0
:100D9000002559B1C46A2368002B0ADA122100F831
:100DA000441F45700120F0BD0220F0BD00F8447FD3
:100DB000F7E740F2F456B1420BD9B1FBF6FCB1FBB8
:100DC000F6F306FB1C1CBCF1000F00D05B1C012BD2
:100DD00043D1226842F040522260C26AC1F30C0142
:100DE0005160C16A0A6842F000420A60C16AC9687B
:100DF000C16234E0D4F800C02CF0405CC4F800C0FC
:100E000032B9C46AD4F800C04CF0805CC4F800C0A9
:100E1000C46A66605C1EA24214D1C46AD4F800C0E1
:100E20004CF0005CC4F800C0C3F10104C4EBC4146E
:100E300004EB4404D0F82CC001EB8404C4F30C048C
:100E4000CCF80440C46AD4F800C04CF0004CC4F89C
:100E500000C0C46A521CE468C4629A42CAD30168E2
:100E600001F580514A69520705D504224A6101689B
:100E700001F580514D6000F8447F45700020F0BDC1
:100E8000704700002DE9F0410446008A16460D46E1
:100E9000202804D94FF48E611DA001F00FFF94F8B3
:100EA000440042281ED0422084F844002068016992
:100EB000228A4FF6FF7301F01C0103EAC2220A43A3
:100EC0004FF4F86101EA8511114341F00305B1B215
:100ED00041612068056100F0D5F9064601274FF40D
:100EE00080380FE00220BDE8F08100F0CBF9801BD4
:100EF000404505D304F8447F002060700320F2E7EA
:100F000020680569E807F0D184F84470EBE7000039
:100F10002E2E5C4C69627261726965735C53544D2C
:100F20003332463478785F48414C5F447269766565
:100F3000725C5372635C73746D3332663478785FBD
:100F400068616C5F6574682E630000002DE9F84FDE
:100F50000446A9480D46844221D0A84884421ED0A8
:100F6000A74884421BD0A748844218D0A648844290
:100F700015D0A648844212D0A54884420FD0A54877
:100F800084420CD0A448844209D0A448844206D0AC
:100F9000A348844203D0C321A2A001F08FFE286899
:100FA0000104090C01D0000C03D0C4219DA001F064
:100FB00085FE6868F8B101281DD011281BD00228D1
:100FC00019D0122817D0A649884214D0A5498842C2
:100FD00011D0A54988420ED0A44988420BD0A4491B
:100FE000884208D0A349884205D0032803D0C521F0
:100FF0008CA001F063FEA86838B1012805D0022852
:1010000003D0C62187A001F059FE00264FF00F0B38
:101010000120B0402F688246074057457ED168685E
:10102000022801D0122830D1286908B309281FD01E
:1010300001281DD002281BD0032819D0042817D05E
:10104000052815D0062813D0072811D008280FD05E
:101050000A280DD00B280BD00C2809D00D2807D05A
:101060000F2805D00E2803D0D7216EA001F026FE50
:10107000F00804EB8000026A7107C90E0BFA01F355
:101080009A432B698B40134303622268700003214B
:1010900001FA00F82979814601F0030122EA0802E9
:1010A00001FA09F1114321606868012805D002287E
:1010B00003D0112801D012281CD1E86848B10128BA
:1010C00007D0022805D0032803D0EA2155A001F05B
:1010D000F5FDA068E96820EA080001FA09F101437A
:1010E000A1606168287921EA0A01C0F30010B040CC
:1010F00008436060E168A86821EA080100FA09F085
:101100000843E0606868C0006FD55B48016841F43F
:1011100080410160006800F4804000E065E00090DC
:10112000564826F003010A18D2F80838B007010F14
:101130000BFA01F083433048844201D100202DE0B6
:101140002E48844201D1012028E02D48844201D15B
:10115000022023E02B48844201D103201EE02A48CC
:10116000844201D1042019E02848844201D105209D
:1011700014E02748844201D106200FE0254884422C
:1011800001D107200AE02448844201D1082005E06B
:101190002248844201D1092000E00A2088401843F7
:1011A000C2F80808364908686A68B843D20300D50F
:1011B000384308603249091D08686A68B8439203D9
:1011C00000D5384308602E49083108686A68B8437A
:1011D000D20200D53843086029490C3108686A6892
:1011E000B843920200D538430860761C102EFFF4F5
:1011F0000FAFBDE8F88F000000000240000402407D
:1012000000080240000C024000100240001402409E
:1012100000180240001C024000200240002402404E
:10122000002802402E2E5C4C6962726172696573FF
:101230005C53544D3332463478785F48414C5F44B8
:1012400072697665725C5372635C73746D33326677
:101250003478785F68616C5F6770696F2E63000037
:1012600000001110000021100000311000001210C9
:1012700000002210000032104438024000300140CB
:10128000003C0140014880687047000004000020D5
:101290000248816802781144816070470400002090
:1012A0000B4810B5016841F400710160016841F418
:1012B00080610160016841F480710160032000F0E9
:1012C000ADF80F2000F006F800F024F8002010BD63
:1012D000003C024070B50D4D04464FF47A712878F9
:1012E000B1FBF0F00A490968B1FBF0F000F0F0FC46
:1012F00048B9102C07D200222146501E00F03EF8BB
:1013000000206C6070BD012070BD00000400002052
:10131000000000207047000010B5040003D5CE2166
:1013200006A001F0CBFC04F01F01012088406109F8
:10133000890001F1E021C1F8000110BD2E2E5C4CA6
:1013400069627261726965735C53544D333246341D
:1013500078785F48414C5F4472697665725C53727D
:10136000635C73746D3332663478785F68616C5F88
:10137000636F727465782E630000000070B51446C8
:101380000D460646102A03D3BA2113A001F096FC9D
:10139000102D03D3BB2110A001F090FC1E48006863
:1013A000C0F30223C3F10700042800D90420191D4B
:1013B000072901D2002300E0DB1E012202FA00F11E
:1013C000491E294099409A40521E22403046BDE8AD
:1013D0007040114300F04ABF2E2E5C4C696272616E
:1013E000726965735C53544D3332463478785F4884
:1013F000414C5F4472697665725C5372635C7374CE
:101400006D3332663478785F68616C5F636F7274D5
:1014100065782E63000000000CED00E010B5044676
:1014200007280BD0062C09D0052C07D0042C05D09A
:10143000032C03D0A22108A001F040FC164A04F0BE
:10144000070110684FF6FF03184040EA01201349D6
:101450000843106010BD00002E2E5C4C6962726162
:10146000726965735C53544D3332463478785F4803
:10147000414C5F4472697665725C5372635C73744D
:101480006D3332663478785F68616C5F636F727455
:1014900065782E63000000000CED00E00000FA0506
:1014A0002DE9F8431748016841F080510160006858
:1014B000DFF8548000F0805001270090C8F8407099
:1014C000FFF7E0FE04464FF47A75104E04E0FFF794
:1014D000D9FE001BA8420DD87068C003F7D5C8F824
:1014E0004470FFF7CFFE044607E0FFF7CBFE001B7A
:1014F000A84202D90320BDE8F88370688003F4D5C0
:101500000020F8E74038024000000E420070004022
:101510002DE9F0470C4605007ED02868401E0E28B5
:1015200004D94FF4147180A001F0C8FB14B3012C4E
:1015300020D0022C1ED0032C1CD0042C1AD0052C39
:1015400018D0062C16D0072C14D0082C12D0092C39
:1015500010D00A2C0ED00B2C0CD00C2C0AD00D2C39
:1015600008D00E2C06D00F2C04D040F251216EA0D2
:1015700001F0A4FBDFF8EC91D9F8000000F00F01B6
:10158000E0B28046A14208D2014689F80010D9F89D
:10159000000000F00F00A0427BD12868724E810746
:1015A00029D5400703D5306840F4E05030602878F2
:1015B000000703D5306840F460403060A868A0B1EF
:1015C000802812D0902810D0A0280ED0B0280CD09F
:1015D000C0280AD0D02808D0E02806D0F02804D0AF
:1015E0004FF41D7150A001F069FB3068A96820F02C
:1015F000F000084330602878C0073CD05A4F686834
:10160000083F98B1012821D0022822D0032820D0F9
:1016100040F27B2144A000E03BE001F04FFB686812
:10162000012813D0022814D0032812D0386880076C
:1016300000282EDA3068696820F003000843306023
:10164000FFF720FE074641F2883A0DE03868800334
:10165000EEE738688001EBE7FFF714FEC11B514548
:1016600002D90320BDE8F0873068696800F00C00FB
:10167000B0EB810FF0D1D9F80010484601F00F010E
:10168000A14208D980F80080006800F00F00A04255
:1016900001D00120E6E728784FF4805440074FF44A
:1016A000A0574FF4C0584FF4E05914D5E86860B122
:1016B000A0420AD0B84208D0404506D0484504D0E0
:1016C00040F2B92118A001F0F9FA3068E96820F475
:1016D000E050084330602878000715D5286960B1CC
:1016E000A0420AD0B84208D0404506D0484504D0B0
:1016F0004FF430710CA001F0E1FA3068296920F450
:10170000604040EAC100306000F05AF83168174A82
:10171000C1F30311515CC840154908600F20FFF761
:10172000D9FD00209EE700002E2E5C4C696272619C
:10173000726965735C53544D3332463478785F4830
:10174000414C5F4472697665725C5372635C73747A
:101750006D3332663478785F68616C5F7263632ED4
:1017600063000000003C02400838024068AF0008F7
:1017700000000020014800687047000000000020C1
:101780000448054900680968044AC1F38221515C94
:10179000C8407047000000200838024078AF0008B9
:1017A0000448054900680968044AC1F34231515CA4
:1017B000C8407047000000200838024078AF000899
:1017C000154810B5006810F00C01144813D0144BE4
:1017D00004290FD008290ED10F4C241F216801F0D5
:1017E0003F022168490207D52068C0F38810A0FB9A
:1017F000030106E0184610BD2168C1F38811A1FB62
:1018000000010023FEF704FD2168C1F30141491CDA
:101810004900B0FBF1F010BD083802400024F4008C
:1018200040787D012DE9F84F04007CD020680F2816
:1018300003D9F821ECA001F041FA2078F94DC00756
:1018400055D060684FF480364FF4A02738B1B042CD
:1018500005D0B84203D0FD21E3A001F02FFAF148F2
:1018600008300168C1F38101012909D00068C0F383
:10187000810002280BD1EB48001D0068400206D50C
:101880002868800333D560680028CED02FE06068D8
:10189000B04203D1286840F480300CE0B842286898
:1018A00003D140F480202860F4E720F480302860E1
:1018B000286820F480202860606860B1FFF7E2FCAF
:1018C000064604E0FFF7DEFC801B64287ED828680B
:1018D0008003F7D50BE0FFF7D5FC064604E0FFF7E1
:1018E000D1FC801B6428F1D828688003F7D42078C5
:1018F000DFF8349380074FF0000A50D5E06830B12C
:10190000012804D040F22F11B7A001F0D7F92069C7
:101910001F2804D94FF49871B3A001F0CFF9C14842
:101920000830016800E091E011F00C0F09D0006868
:10193000C0F3810002280BD1BA48001D00684002A4
:1019400006D42868800714D5E06801287ED110E00D
:10195000E068B0B10120C9F80000FFF793FC06462B
:1019600004E0FFF78FFC801B0228AFD828688007AF
:10197000F7D52868216920F0F80040EAC100286006
:101980000DE0C9F800A0FFF77DFC064604E0FFF774
:1019900079FC801B022899D828688007F7D4207822
:1019A00000072BD59F4FA14E60697437C0B1012845
:1019B00006D04FF4B8718CA001F080F9606978B15D
:1019C00001203060FFF75EFC064605E042E1FFF7CC
:1019D00059FC801B022886D838688007F7D50DE0AF
:1019E000C6F800A0FFF74EFC064604E0FFF74AFCED
:1019F000801B0228B9D838688007F7D420784007C0
:101A000076D5A0684FF0000840B1012806D005281F
:101A100004D04FF4CE7174A001F050F9DFF804B295
:101A20000BF1400BDBF80000C0000CD4DBF8001019
:101A300041F08051CBF80010DBF800004FF00108B6
:101A400000F0805000907A4F386800E0CBE0C0058D
:101A50000FD4386840F480703860FFF713FC0646F6
:101A600004E0FFF70FFC801B022894D83868C005FB
:101A7000F7D56C4FA068703701280FD0052838685B
:101A800010D020F001003860386820F00400386081
:101A9000A068B0B1FFF7F6FB06460EE0386840F0EC
:101AA0000100F4E740F004003860F7E7FFF7EAFBD5
:101AB000811B41F2883081428DD838688007F5D586
:101AC0000DE0FFF7DFFB064606E0FFF7DBFB811BBF
:101AD00041F2883081428DD838688007F5D4B8F15A
:101AE000000F05D0DBF8001021F08051CBF800107A
:101AF000A069002876D0012809D0022807D040F23A
:101B0000DF1139A001F0DAF8A0690028F2D04548C9
:101B100008300068C0F38100022864D0A069022860
:101B200005D0C9F860A0FFF7ADFB044695E0E06979
:101B300038B1B0F5800F04D04FF4F4712AA001F051
:101B4000BDF8206A3F2804D940F2E91126A001F02F
:101B5000B5F8606A3238B0F5BF7F04D94FF4F5713B
:101B600021A001F0ABF8A06A02280AD0042808D00E
:101B7000062806D0082804D040F2EB111AA001F084
:101B80009DF8E06A801E0D2804D94FF4F67116A066
:101B900001F094F84F46C9F860A0FFF773FB0646C2
:101BA00004E0FFF76FFB801B022853D828688001F0
:101BB000F7D4D4E907010843A16A1E4A490802EB99
:101BC0000141626A41EA8211084394F82C1040EA0C
:101BD00001611448001D016001203866FFF752FBC7
:101BE00004462EE03CE03DE02E2E5C4C69627261C2
:101BF000726965735C53544D3332463478785F486C
:101C0000414C5F4472697665725C5372635C7374B5
:101C10006D3332663478785F68616C5F7263632E0F
:101C2000630000000038024000004742800E474237
:101C3000007000400000FFFFFFF724FB001B02289C
:101C400008D828688001F7D50AE0FFF71BFB001BC6
:101C5000022802D90320BDE8F88F28688001F4D457
:101C60000020F8E70120F6E710B54FF0E024042843
:101C70000AD020B140F2D91105A001F01FF8206967
:101C800020F00400206110BD206940F00400F9E755
:101C90002E2E5C4C69627261726965735C53544D9F
:101CA0003332463478785F48414C5F4472697665D8
:101CB000725C5372635C73746D3332663478785F30
:101CC00068616C5F636F727465782E63000000005A
:101CD00010B5401EB0F1807F01D3012010BD4FF040
:101CE000E02460610F21601700F0C0FA0020A061BD
:101CF00007202061002010BD70B5040022D0A0692B
:101D00003D4900283D4A3E4B3E4E20681CD08D1573
:101D100088420BD0904209D0984207D0B04205D0FB
:101D2000294639A000F0CAFFA06930B3A069A842D3
:101D300023D0B0F5007F20D0B0F5407F1DD040F219
:101D4000011117E0012070BD884216D0904214D0D6
:101D5000984212D03B4988420FD03B4988420CD070
:101D6000B0420AD03949884207D03949884204D064
:101D700040F2051124A000F0A1FFA06838B1B0F531
:101D8000805F04D040F207111FA000F097FFE069C8
:101D900038B1B0F5004F04D04FF484711AA000F0B0
:101DA0008DFF94F83900002520B984F8385020467A
:101DB00000F050F8242084F839002068C16821F42C
:101DC0000051C160204600F03BFB2068016921F40E
:101DD000904101612068416921F02A014161206838
:101DE000C16841F40051C160E563202084F83900E6
:101DF00084F83A00002070BD00100140004400400B
:101E000000480040001401402E2E5C4C6962726153
:101E1000726965735C53544D3332463478785F4849
:101E2000414C5F4472697665725C5372635C737493
:101E30006D3332663478785F68616C5F7561727497
:101E40002E630000004C004000500040007800402D
:101E5000007C004030B51E4887B0016841F0100199
:101E60000160006800F010000590194814380168FE
:101E700041F001010160016801F001010591016873
:101E800041F0010101600068072400F001000590A5
:101E90004FF4007000900220019001200290032076
:101EA000CDE903040B4D69462846FFF74FF8291585
:101EB0000091049469462846FFF748F80122002162
:101EC0002520FFF75BFA2520FFF726FA07B030BD83
:101ED00044380240000002402DE9F843044690F8DF
:101EE00039001E4617460D46202850D1A5B19FB196
:101EF00094F8380001284AD0012084F838004FF0C7
:101F00000008C4F83C80212084F83900FFF7BAF9B2
:101F1000A7848146E78426E00120BDE8F883E08CB1
:101F2000401EE084A0684B46B0F5805F4FF0000291
:101F30004FF080012046009603D000F023FCE8B962
:101F40000DE000F01FFCC8B928882168C0F3080024
:101F50004860206908B16D1C05E0AD1C03E02168F4
:101F600015F8010B4860E08C0028D8D14B460022C0
:101F700040212046009600F005FC08B10320CCE784
:101F8000202084F8390084F838800020C5E702203A
:101F9000C3E7000070B50D4C0025C4F890520C4802
:101FA000016821F440610160016841F480610160D1
:101FB000C4F89452022004F5247401F071F8012051
:101FC0002060022001F06CF8256070BD0080434263
:101FD000001C02400E4810B5016886B041F0800137
:101FE00001600068012400F0800005903020CDE9F8
:101FF00000040220CDE9024069460648FEF7A6FF2C
:102000000548C0F89442C0F8904206B010BD0000E8
:1020100030380240001C02400080434270B50D4C35
:102020000026C4F890620C48016821F44061016008
:10203000016841F4806101600125C4F894520220D6
:1020400004F5247401F02CF82560022001F028F832
:10205000266070BD00804342001C02402DE9F0471D
:10206000814616480024016821F44061016001683E
:102070000160134E254627464FF00108C6F89072BE
:10208000022001F00DF8C6F890826006040ED6F822
:10209000140208B1641CE4B2012001F001F86D1CC7
:1020A000EDB2082DEAD3B9F1000F04D0FFF772FFAB
:1020B0002046BDE8F087FFF7B1FFF9E7001C0240BA
:1020C000008043422DE9F04105461448016821F49F
:1020D00040610160016841F480610160104E002799
:1020E000C6F890723C464FF00108E809C6F8940221
:1020F0006806050E022000F0D3FFC6F89082022089
:1021000000F0CEFFC6F89072022000F0C9FF641CF8
:10211000E4B2082CE9D3BDE8F0810000001C0240C5
:102120000080434270B50D48016821F440610160B0
:10213000016841F480610160094C0120C4F89402F7
:10214000C4F89002042004F5247400F0A9FF0025CF
:102150006560042000F0A4FF256070BD001C0240F3
:10216000008043420E4810B5016821F440610160CF
:10217000016841F4806101600A4C0020C4F89002BB
:10218000C4F89402042004F5247400F089FF0120AF
:1021900020606060BDE81040042000F081BF0000B6
:1021A000001C02400080434270B5124800240168C0
:1021B00021F440610160016801600F4D0126C5F8FE
:1021C0009462304600F06CFFC5F89062012000F088
:1021D00067FF07E0641CE4B2FA2C03D9FFF7C2FFE3
:1021E000012070BDD5F814020028F3D1C5F8900283
:1021F00070BD0000001C0240008043420EB515492E
:1022000013480860091D6FF07F400860091D1248DF
:10221000086003F08FFF114A114900208DE8070084
:102220000C4B104808331A1F111F04F07FFA0D4899
:1022300004F0ECFB0B4890F82D004007094803D54B
:10224000BDE80E4004F00ABCBDE80E4004F0E4BB5B
:10225000C0A8017A14000020C0A80101B94C0008F0
:10226000ED4D0008F8000020FEE770470907090E51
:10227000002806DA00F00F0000F1E02080F8141DBD
:10228000704700F1E02080F800147047154810B541
:10229000026886B0002142F002020260006800F08D
:1022A000020005904FF48050CDE90001012002901A
:1022B0000320039069460C48FEF748FEFFF78AFEAC
:1022C000FFF730FF4020FFF7FDFEFFF76DFF074CE3
:1022D0002070FFF747FFFF2000F02AF8207806B0B3
:1022E00010BD0000303802400004024024000020ED
:1022F00010B5FFF717FF4120FFF7E4FEFFF754FF8B
:102300000020FFF7ABFE0446FFF72CFF204610BD70
:1023100070B50C460546FFF7EBFF0122AA402CB131
:102320000243D0B2BDE8704000F002B89043F9E734
:1023300010B50446FFF7F6FE4020FFF7C3FEFFF797
:1023400033FF2046FFF7BEFEFFF72EFFFFF70AFF21
:10235000BDE810400A2000F095BE70477047FEF7B8
:1023600097BF000030B51F4893B00025016841F0C9
:1023700080510160006800F0805011901A48016897
:1023800041F4404101600068022400F44040119093
:1023900001200090000401908001CDE90640192041
:1023A00008904FF4B470CDE9090407200B906846FB
:1023B000FFF738FA00B1FEE7FFF772F80CA90F201B
:1023C00081E831004FF4A0500F904FF480501090EE
:1023D00005210CA8FFF79CF8002800D0FEE713B0F9
:1023E00030BD0000403802400070004010480168D5
:1023F00041F4700101600F48016841F00101016082
:102400000C4A00210832116002680B4B1A4002602E
:10241000031D0A4A1A60026822F4802202600548FD
:102420000C3001600249580680390860704700008E
:1024300088ED00E000380240FFFFF6FE1030002477
:102440002DE9F04104464068BC49884204D340F677
:102450008511BBA000F032FCE06838B1B0F5005F38
:1024600004D040F68611B6A000F028FC206950B1D7
:10247000B0F5806F07D0B0F5C06F04D040F687117B
:10248000AFA000F01BFC60694FF6F371084200D169
:1024900020B940F68811AAA000F010FC206801695C
:1024A00021F44052E168114301612068C26849F299
:1024B0000C618A432369A168E569194363692B4369
:1024C00019431143C16020684169A26921F4407138
:1024D0000A434261E0696425B0F5004FA74AA84964
:1024E00020684FF032083FD0884201D090427CD122
:1024F000FFF756F900EBC00101EB0010616889009D
:10250000B0FBF1F6FFF74CF900EBC00101EB001056
:1025100061688900B0FBF1F0B0FBF5F06FF01801D5
:10252000484306EB800108EB0110B0FBF5F000F02A
:10253000F006FFF735F900EBC00101EB0010616810
:102540008900B0FBF1F0B0FBF5F006EB0016FFF7E9
:1025500027F900EBC00101EB001061688900B0FBB6
:10256000F1F7FFF71DF9D2E0884201D090423DD14A
:10257000FFF716F900EBC00101EB0010616849009C
:10258000B0FBF1F0B0FBF5F00601FFF709F900EB45
:10259000C00101EB001061684900B0FBF1F7FFF7E3
:1025A000FFF800EBC00101EB001061684900B0FBCF
:1025B000F1F0B0FBF5F06FF01801484307EB800134
:1025C00008EBC100B0FBF5F000F0F80006EB4006A8
:1025D000FFF7E6F800EBC00101EB0010616849006D
:1025E000B0FBF1F7FFF7DCF83CE055E0FFF7C8F887
:1025F00000EBC00101EB001061684900B0FBF1F095
:10260000B0FBF5F00601FFF7BBF800EBC00101EBF2
:10261000001061684900B0FBF1F7FFF7B1F800EB7B
:10262000C00101EB001061684900B0FBF1F0B0FBA4
:10263000F5F06FF01801484307EB800108EBC1008B
:10264000B0FBF5F000F0F80006EB4006FFF798F855
:1026500000EBC00101EB001061684900B0FBF1F72D
:10266000FFF78EF800EBC00101EB00106168490034
:10267000B0FBF1F0B0FBF5F06FF01801484307EB49
:10268000800108EBC100B0FBF5F000F00700216805
:1026900030448860BDE8F081FFF772F800EBC001BC
:1026A00001EB001061688900B0FBF1F6FFF768F8F4
:1026B00000EBC00101EB001061688900B0FBF1F094
:1026C000B0FBF5F06FF01801484306EB800108EB12
:1026D0000110B0FBF5F000F0F006FFF751F800EB49
:1026E000C00101EB001061688900B0FBF1F0B0FBA4
:1026F000F5F006EB0016FFF743F800EBC00101EB25
:10270000001061688900B0FBF1F7FFF739F800EBC2
:10271000C00101EB001061688900B0FBF1F0B0FB73
:10272000F5F06FF01801484307EB800108EB01104A
:10273000B0FBF5F000F00F00A9E70000A137A00002
:102740002E2E5C4C69627261726965735C53544DE4
:102750003332463478785F48414C5F44726976651D
:10276000725C5372635C73746D3332663478785F75
:1027700068616C5F756172742E6300000014014023
:10278000001001402DE9F0411E46174688460446D8
:10279000069D1CE0681C1AD025B1FEF773FD801B56
:1027A000A84214D92068C16821F4D071C1602068A2
:1027B000416921F001014161202084F8390084F849
:1027C0003A00002084F838000320BDE8F08120683A
:1027D000016838EA010004D00020B842DAD00020B5
:1027E000F3E70120F9E7FEE70FB4054B10B503A9A5
:1027F000044A029800F02CF810BC5DF814FB0000AD
:10280000E5500008F40000200FB4084B10B504A9EF
:1028100002AA039800F01CF8044602A9002000F068
:1028200048FA204610BC5DF814FB0000B32C0008E9
:1028300002E008C8121F08C1002AFAD17047704789
:10284000002001E001C1121F002AFBD170470000E7
:102850002DE9FF4F8DB00F460546002606E02528DE
:102860000BD0DDE90F1290476D1C761C28780028EC
:10287000F5D111B03046BDE8F08F0024A246A14644
:102880000122EC4900E0044315F8013F203B02FA25
:1028900003F00842F7D128782A2810D06FF02F02D1
:1028A0002878A0F13001092914D80AEB8A0102EB3B
:1028B000410144F0020400EB010A6D1CF0E701CF76
:1028C0005FEA000A03D544F40054CAF1000A44F058
:1028D00002046D1C28782E2817D115F8010F44F03A
:1028E00004042A280ED06FF02F022878A0F13001BE
:1028F00009290AD809EB890102EB410100EB010922
:102900006D1CF2E757F8049B6D1C28786C280FD0DB
:1029100006DC4C2817D068280DD06A2814D104E0B2
:10292000742810D07A280FD10DE044F400140AE086
:1029300044F4801401E044F440146978814202D1E7
:1029400004F580146D1C6D1C2A786E2A1FD00CDCD7
:10295000632A31D004DC002A8BD0582A11D1A3E09D
:10296000642A68D0692A0CD165E0732A2ED004DC71
:102970006F2A73D0702A04D19BE0752A6FD0782A11
:102980006ED01046DDE90F129047761C50E1C4F37B
:102990000250022806D0032809D0042801CF09D00C
:1029A000066045E101CFF117C0E9006140E101CFC8
:1029B00006803DE106703BE117F8040B8DF800003E
:1029C00000208DF80100EB46012003E057F804BB1E
:1029D0004FF0FF3061074FF0000102D40DE008F125
:1029E0000101884649450FDA8045F8DB1BF80810DD
:1029F0000029F4D108E008F1010188468142FADBA0
:102A00001BF808100029F6D1DDE90F23AAEB080016
:102A10008146214600F036F9304400EB080604E018
:102A2000DDE90F121BF8010B9047B8F10108F7D24E
:102A300021464846F7E00A21C4F302534FF0000B49
:102A40000891022B04D001CFC117032B09D00AE053
:102A5000FF1D27F00707F7E8020108E032E01FE05A
:102A600020E000B2C117042B01D140B2C117031EF0
:102A700071F1000307DA4FF0000CD0EB0C006CEBA7
:102A800001012D2302E0230504D52B238DF82430EA
:102A9000012303E0E30701D02023F7E7984658E03D
:102AA0000A2110E010210EE010204FF0000B0890DA
:102AB0000CE010214FF0000B44F004044FF0080923
:102AC000089103E008214FF0000B0891C4F3025372
:102AD000022B04D001CF0021032B06D006E0FF1DFE
:102AE00027F00707F7E8020103E080B2042B00D1CA
:102AF000C0B24FF0000823072BD5702A07D0DDF8AD
:102B000020C08CF0100C5CEA0B0C05D00EE04023CA
:102B10008DF82430012308E050EA010306D0302369
:102B20008DF824308DF8252002239846DDF820C04A
:102B30008CF0080C5CEA0B0C0BD150EA010301D1BC
:102B4000630706D530238DF824304FF00108A9F132
:102B50000109582A04D038A20B9208AA0A920BE065
:102B60003AA2F9E75B46089AFDF752FB0B9B9B5C88
:102B70000A9A521E0A92137050EA0102F2D10A9880
:102B8000ADEB000000F1200B600702D524F4803487
:102B900001E04FF00109D94502DDA9EB0B0000E08F
:102BA000002000EB0B0141440890AAEB010AE0036E
:102BB00006D4DDE90F232146504600F063F80644B1
:102BC0004FF0000908E009A911F80900DDE90F122A
:102BD000904709F10109761CC145F4DBE0030CD5EF
:102BE000DDE90F232146504600F04CF8064404E08E
:102BF000DDE90F1230209047761C0899481E089096
:102C00000029F5DC08E00A980A990078491C0A9125
:102C1000DDE90F129047761CBBF10001ABF1010B0F
:102C2000F1DC21465046DDE90F2300F019F8064497
:102C30006D1C1BE60928010030313233343536373C
:102C400038396162636465660000000030313233F8
:102C50003435363738394142434445460000000098
:102C60002DE9F041044600251E461746880404D489
:102C700005E039462020B0476D1C641EF9D5284672
:102C8000BDE8F0812DE9F041044600251E4690463E
:102C9000C80301D5302700E02027880404D505E0CB
:102CA00041463846B0476D1C641EF9D52846BDE83C
:102CB000F0810A68531C0B60107070470C46054683
:102CC000FDF784FA00F014F82246294601A0FFF728
:102CD0008BFDFEE7617373657274206661696C65D4
:102CE000642061742025733A2564200A00000000E6
:102CF00070B50F4C0546207888B10EA0FFF774FD23
:102D00000DA0FFF771FD00F09DF9D4E902012A46FC
:102D100001F044FB2846BDE8704004F069BB074A57
:102D200007A109A0FFF760FD03A0FFF75DFDFEE727
:102D3000DC000020000000000D0A000034B1000893
:102D4000696E69745F6F6B00282573292068617351
:102D500020617373657274206661696C65642061BB
:102D6000742025732E0000002DE9F043244C894681
:102D7000A446D4E9023794F801809CF80260014629
:102D8000DCE9044C00200546A444B8F1000F11D042
:102D90008EB91C4EB069086076690120361FA642C4
:102DA00011D3B4450FD3B9F1010F0CD9022001257D
:102DB0004E6008E03EB19A4201D21A4603E0DE19A5
:102DC000964200D232461F44974216D91668331FE6
:102DD000F60710D0A3420ED39C450CD310280AD27C
:102DE000484508D2022803D115B14E689E4202D050
:102DF00041F82030401C121DE6E7BDE8F0830000DA
:102E0000DC000020A8C001202DE9F04F8DB00C4659
:102E1000074620225D4905A8FDF72BFA5C4ED6E94E
:102E200002508146307858B1707898B1574A59A10C
:102E3000143A5BA0FFF7D8FC61A0FFF7D5FCFEE7D2
:102E4000524A60A1143A56A0FFF7CEFC5CA0FFF7EF
:102E5000CBFCFEE74FF0010A86F801A05BA0FFF76C
:102E6000C3FC57A0FFF7C0FC00F0ECF8DFF81CB182
:102E7000ABF1BC0BDBF82800FFF7B6FC50A0FFF766
:102E8000B3FC47F30010401C04F12008F07001D09F
:102E900008F14808A84503D305EB0900404501D2D5
:102EA00086F802A042464946284601F077FAB078F3
:102EB000474D00283ED1DBF82C00FFF795FC40A0E1
:102EC000FFF792FC26682E6060686860A168A960C0
:102ED000E268EA6023692B6163696B61A369AB6196
:102EE000E369EB61DDE90734CDE90003CDE90214C4
:102EF0000492DDE90513324636A0FFF775FC30A0D9
:102F0000FFF772FC01AE0B98EB690C9AA96986E891
:102F10000F00686900900A9B2A692EA00999FFF7A3
:102F200063FC27A0FFF760FC35A0FFF75DFC24A041
:102F3000FFF75AFC4248006845F8200F4048001D42
:102F4000007828713E4810300068A8603C48401D59
:102F5000007828733A481430006828613848801D8A
:102F60000088A882364808300068A86134480C30D0
:102F70000088E861324818300088286201F092FF2A
:102F8000404604F035FA0DB0BDE8F08F5CB10008A2
:102F9000DC000020216F6E5F6661756C74000000BC
:102FA000282573292068617320617373657274200A
:102FB0006661696C65642061742025732E000000D1
:102FC0000D0A0000696E69745F6F6B0000000000FD
:102FD000A8C00120202025733A20253038782020F1
:102FE00025733A2025303878202025733A20253063
:102FF0003878202025733A202530387800000000EA
:103000003D3D3D3D3D3D3D3D3D3D3D3D3D3D3D3DF0
:103010003D3D3D3D3D3D3D3D3D3D3D3D3D3D3D3DE0
:103020003D3D3D3D3D3D3D3D3D3D3D3D3D3D3D3DD0
:103030003D3D3D3D3D3D3D3D3D3D3D3D3D3D00003A
:1030400024ED00E010B50748074BA3F1200200680B
:10305000A2F12001FFF7C8FBBDE8104003A0FFF775
:10306000C3BB0000A0B00008F8BF01200D0A00009B
:1030700010B504460420FEF7F7FD0148046010BDBA
:103080002000002070B5054600244FF47A7603E056
:10309000304600F005F8641CAC42F9D370BD000066
:1030A00070B54FF0E02500216C69094AAB691268E0
:1030B0005043AA699A42FCD002D2A3EB020302E079
:1030C000A4EB02063344194413468142F1D370BD88
:1030D0002000002058B1026A002A0BD05379082B37
:1030E00008D10968D269914204D100F0E9B902A07F
:1030F000FFF77ABB704700006E6574696620213D5A
:10310000204E554C4C0000002DE9FC4105001BD021
:103110002C6ADCB14FF0000EA4F812E0A06A4FF068
:103120003C02411C4FF4803C4FF001074FF6FF7604
:1031300012D01E30B0FBF2F0604500D330460004E0
:10314000000CA08207D007E029A000E02FA0FFF725
:103150004BFBBDE8FC81A782E36A581C0CD01E33F0
:10316000B3FBF2F1614500D331460804000C6081E5
:1031700000D167816089E081206B411C0CD01E303A
:10318000B0FBF2F2624500D332461004000CA0817D
:1031900000D1A781A08920826189A089814202D3C0
:1031A00008B1A4F80AE0E07908B1206A08E0237FBA
:1031B0007F2B01D8FF2003E0C02B03D36FF07F40AB
:1031C000009000E00096606A019028B9E0690099DB
:1031D000084040F0807001900A21204600F0F6FF80
:1031E00001AB6A4604F11C01284603F0DFFBB0E79F
:1031F000646863705F62696E643A206E65746966C4
:1032000020213D204E554C4C000000006468637046
:103210005F62696E643A206468637020213D204ECD
:10322000554C4C0070B5046A05460821204600F054
:10323000CDFF002204F11C01284601F069FBA079B2
:10324000FF2801D2401CA0714FF4FA7140F2E73020
:10325000B0FBF1F0208170BD70B5294804684CE0E6
:10326000216AA1B3487990B3888A68B1488A401C22
:1032700080B248828A8A904206D1204600F016FE2B
:10328000204600F0ABFF37E0088A18B1421E0A82E0
:10329000012806D0C889D0B1421ECA81012817D0A2
:1032A0002AE0256A20466979012905D00A2903D038
:1032B000052901D004291FD100F07CFCA88A698A65
:1032C000401A022818DB00EBD0704008288213E077
:1032D000256A20466979012903D00A2901D00529E8
:1032E0000AD100F041FEA889698A401A022803DB4E
:1032F00000EBD0704008E8812468002CB0D170BD8C
:103300005C0000202DE9F047994615460F4606005F
:1033100017D0002F17D04FF49A744FF42072214623
:10332000362003F0EDFBB0F1000810D0B8F80A0029
:10333000A246504502D22CA0FFF756FA032D0BD11E
:1033400007E039A000E040A0FFF74EFA0020BDE8FA
:10335000F0877879032807D1B979434811B94168D2
:10336000491C416040683860D8F804405146204606
:10337000FCF7A6FF01202070607096F82C00A0706A
:10338000386802F0D3FE6060082D0AD0042D08D002
:10339000072D06D0032D06D17879052801D0042801
:1033A00001D17068E0600023F018E1185B1C90F810
:1033B00026009BB20877062BF6D32C48C4F8EC0005
:1033C00004F1F001012335220C46002000F0CAF977
:1033D0002A46214600F0DEF9B9F1000F01D0A9F824
:1033E00000004046B3E70000646863705F63726585
:1033F0006174655F6D73673A20636865636B207401
:1034000068617420666972737420706275662063E7
:10341000616E20686F6C64207374727563742064CD
:103420006863705F6D736700646863705F63726583
:103430006174655F6D73673A206E657469662021FB
:103440003D204E554C4C0000646863705F637265AC
:103450006174655F6D73673A206468637020213D15
:10346000204E554C4C000000BC000020638253638A
:1034700010B5094C207810B908A0FFF7B5F92078ED
:10348000401E10F0FF00207004D1A06807F0FCFB84
:103490000020A06010BD0000BC00002064686370C4
:1034A0005F7063625F726566636F756E7428293A38
:1034B00020726566636F756E74206572726F72003C
:1034C000FEB5046A06460C21204600F07FFE02ABE2
:1034D000042221463046FFF715FF050028D0696811
:1034E0000423F03132220F46BDF8080000F03AF90B
:1034F000ADF80800E06902F019FE02463946BDF851
:10350000080000F071F9ADF808002A46394600F0CD
:10351000D3F90F484323CDE900600F480D4A2946EF
:10352000806807F03DFC0646284603F09FFD01E059
:103530004FF0FF36A079FF2801D2401CA07142F65F
:1035400003104FF4FA71B0FBF1F020813046FEBD5C
:103550008CB0000890B00008BC0000202DE9FE4FA0
:10356000056A07464FF0000906212846C5F81C9059
:1035700000F02CFE02AB012229463846FFF7C2FEBE
:1035800006003BD071680223F0318A463922544646
:10359000BDF8080000F0E6F8ADF80800BA8C214646
:1035A00000F05AF9ADF8080003233722214600F055
:1035B000D9F8DFF88480ADF808000024514618F8E7
:1035C0000420BDF8080000F0E5F8641CE4B2ADF892
:1035D0000800032CF2D33246514680B200F06CF959
:1035E00016484323CDE900701348154A401E314662
:1035F000806807F0D5FB304603F038FDA879FF2836
:1036000001D2401CA871C1B2062902D20120884013
:1036100000E03C2000EB4001C1EBC0104FF6FF7111
:1036200001EAC0004FF4FA7100F2F310B0FBF1F0C0
:1036300028814846BDE8FE8FBD0000208CB0000800
:1036400090B0000870B50B48002504680EE0216AB0
:1036500059B10889012803D9A0F10100088104E0CB
:1036600003D10D81204600F023FE2468002CEED10A
:1036700070BD00005C00002070B5046A0022164E88
:1036800022626262F078154D08B1E868A062307974
:1036900008B1286901E0A06A4008E062707908B1C9
:1036A000686903E0A06AC0EBC000C0082063086935
:1036B000E061B07930B1A86902F038FD20620120E4
:1036C000E07100E0E271F079002803D0E86902F0CF
:1036D0002DFD606270BD0000C8000020A8BE012062
:1036E00010B5134C2078D0B9A06810B111A0FFF725
:1036F0007BF807F0A7FAA060B0B1417A442241F00C
:1037000020014172154907F0B7F843221349A06818
:1037100007F01EF900221249A06807F0A1FA2078EC
:10372000401C2070002010BD4FF0FF3010BD000085
:10373000BC000020646863705F696E635F706362E1
:103740005F726566636F756E7428293A206D656DCA
:103750006F7279206C65616B000000008CB000080E
:103760008D3D00082DE9F0411D4604462844801C8B
:1037700017460E46442802D90548FFF735F8375555
:10378000641CA0B23554401C80B2BDE8F08100003A
:103790004CB2000870B515460E460446442802D3C4
:1037A00003A0FFF721F83555641CA0B270BD0000DE
:1037B000646863705F6F7074696F6E5F627974655F
:1037C0003A206F7074696F6E735F6F75745F6C65AC
:1037D0006E203C20444843505F4F5054494F4E5355
:1037E0005F4C454E0000000070B50646001D1446B3
:1037F0000D46442802D909A0FEF7F6FF200EA85571
:10380000761CB0B2210C2954401C80B2210A2954E4
:10381000401C80B22C54401C80B270BD6468637040
:103820005F6F7074696F6E5F6C6F6E673A206F7058
:1038300074696F6E735F6F75745F6C656E202B209B
:1038400034203C3D20444843505F4F5054494F4E34
:10385000535F4C454E00000070B50446801C154671
:103860000E46442802D905A0FEF7BEFF280A3055AF
:10387000641CA0B23554401C80B270BD6468637093
:103880005F6F7074696F6E5F73686F72743A206FE8
:103890007074696F6E735F6F75745F6C656E202BEB
:1038A0002032203C3D20444843505F4F5054494F04
:1038B0004E535F4C454E000030B4FF230B54401C68
:1038C00083B2002402E0CC545B1C9BB2442BFAD39D
:1038D000F03330BC99B2104603F04EBC2DE9F34FE3
:1038E00085B000208B4903900190C860086105985D
:1038F00040892C2870D305984FF0F0080089059F67
:1039000006E0A8EB0102401A3F681FFA82F880B275
:10391000002F61D0798942464145F2D91646824648
:10392000BDE0B01C1FFA80F94FF0FF34B145E1D380
:103930007B89721C934203D90BEB0600407803E0AD
:10394000386808B140680078342905463AD007DC69
:1039500021B3012925D0032929D0332908D12DE00D
:1039600035293CD036293ED03A2940D03B2942D097
:10397000002581B33044801CB0F5803F2CD286B244
:10398000002D7FD000200090082C02D362A0FEF70B
:103990002BFF60480C30005D88B373E000200546C3
:1039A000E7E7042801D061A07DE00624E1E70425D3
:1039B000042801D260A076E00724DAE70428F2D1D7
:1039C0000324D6E7012801D060A06CE0B8F1F00F25
:1039D00003D061A067E013E06CE00024C9E7012890
:1039E000F2D10124C5E70428DDD10224C1E704286F
:1039F000D9D10424BDE70428D5D10524B9E701E0D5
:103A000096B23FE0042D01D2284600E00420024691
:103A100002904B466946384603F0CEFA01460298BA
:103A2000814247D1042D18D9A80701D050A03AE00F
:103A3000384901200C310855009802F077FB014607
:103A400051482D1FEDB240F8241009F1040080B256
:103A500048452FD38146641C96E7042D03D0012DE1
:103A600005D04AA01FE0009802F060FB01E09DF83D
:103A700000000090274901200C3108554248009968
:103A800040F824107889B04217D8311AAAEB000008
:103A90008EB21FFA80FA56450CD23F6817B1D7F89C
:103AA00004B00BE03EA0FEF79FFE6FF0050007B0EC
:103AB000BDE8F08F6FF00100F9E737B1564504D249
:103AC0001BF80610FF297FF42CAF12490C3108783F
:103AD00060B12D48002200680A70012808D0022831
:103AE00002D003280AD001E001200190039840B1E0
:103AF000002003904FF06C08EC2000E701200190BB
:103B0000F6E701980028D2D0002001904FF02C0851
:103B10006C20F4E6BC000020636865636B2064657C
:103B2000636F64655F696478000000006C656E20F7
:103B30003D3D2034000000006C656E203E3D206459
:103B400065636F64655F6C656E0000006C656E2078
:103B50003D3D2031000000006F7665726C6F61643E
:103B600020696E2066696C652F736E616D6500005B
:103B70006465636F64655F6C656E20252520342065
:103B80003D3D203000000000A8BE0120696E766136
:103B90006C6964206465636F64655F6C656E0000CA
:103BA0006E657874207062756620776173206E751B
:103BB0006C6C00002DE9FC47056A07460421284685
:103BC00000F004FB01AB032229463846FFF79AFBBD
:103BD00006003BD071680223F031894639224C46F9
:103BE000BDF80400FFF7BEFDADF80400BA8C214615
:103BF000FFF732FEADF80400032337222146FFF71A
:103C0000B1FDDFF88080ADF804000024494618F8C3
:103C10000420BDF80400FFF7BDFD641CE4B2ADF85C
:103C20000400032CF2D33246494680B2FFF744FE2B
:103C300014480097401E4323134A3146806807F01A
:103C40004BF80446304603F011FA01E04FF0FF3420
:103C5000A879FF2801D2401CA871C0B20A2804D25A
:103C60004FF47A7110FB01F001E042F2107080B263
:103C70004FF4FA7100F2F310B0FBF1F02881204606
:103C8000BDE8FC87BD00002090B000082DE9FC478E
:103C9000056A07460321284600F098FA01AB032283
:103CA00029463846FFF72EFB06004ED071680223E6
:103CB000F031894639224C46BDF80400FFF752FD29
:103CC000ADF804004FF410722146FFF7C5FDADF8C2
:103CD0000400042332222146FFF744FDADF804001E
:103CE000E86902F023FA02462146BDF80400FFF716
:103CF0007BFDADF80400032337222146FFF732FD98
:103D0000DFF88080ADF804000024494618F804204C
:103D1000BDF80400FFF73EFD641CE4B2ADF80400FA
:103D2000032CF2D33246494680B2FFF7C5FD154851
:103D30000097401E4323144A3146806806F0CCFFAA
:103D40000446304603F092F901E04FF0FF34A879C1
:103D5000FF2801D2401CA871C0B20A2804D24FF437
:103D60007A7110FB01F001E042F2107080B24FF462
:103D7000FA7100F2F310B0FBF1F028812046BDE8A3
:103D8000FC870000BD00002090B000082DE9F04144
:103D90004248516816464468256A002D79D0287932
:103DA000002876D070892C2873D30878022870D127
:103DB000002094F82C2008E023180F1893F82630E0
:103DC0003F7FBB4265D1401CC0B2824201D9062868
:103DD000F2D3486802F0AAF92968884259D12946E5
:103DE0003046FFF77BFD08BB2D494878F0B12D4ADE
:103DF00077681079052804D0062821D0022836D00B
:103E000047E06879012806D0032814D0042812D08E
:103E1000052810D03DE039462046FFF72DFC94F8E8
:103E20002D00000703D52046FFF7FCF931E02046BE
:103E3000FFF76AF92DE039462046FFF71DFCF6E74B
:103E40006879032805D0012803D0042801D005286B
:103E50001FD10C21206A00F0B9F9134B20461A46F5
:103E6000114602F0A3FD2046FFF778FB11E06879C8
:103E700006280ED12546246A887850B1002020817A
:103E8000906802F053F9A0613869E061284600F0BB
:103E9000D7F83046BDE8F04103F0E8B8F4620020FE
:103EA000C8000020A8BE01208CB000082DE9FE4308
:103EB000046A0746002C51D0607900284ED0A069D2
:103EC00002900025A561E561256265622563E562D2
:103ED000A562A58265822582E581384600F0DAF97F
:103EE00060B301AB072221463846FFF70BFA060004
:103EF00024D071680423F03136228846BDF80400CE
:103F0000FFF730FCADF80400029802F00FF902460A
:103F10004146BDF80400FFF767FCADF804003246E7
:103F20004146FFF7C9FC0E480097432302AA3146D9
:103F3000806806F0D1FE304603F098F8094B384609
:103F40001A46114602F032FD0021204600F03EF9EB
:103F50002079002802D0FFF78BFA2571BDE8FE8397
:103F6000BC0000208CB000082DE9FC47056A07461C
:103F70000521284600F02AF901AB032229463846DC
:103F8000FFF7C0F906003CD071680223F031894682
:103F900039224C46BDF80400FFF7E4FBADF80400FD
:103FA000BA8C2146FFF758FCADF8040003233722F2
:103FB0002146FFF7D7FBDFF88480ADF8040000242A
:103FC000494618F80420BDF80400FFF7E3FB641C21
:103FD000E4B2ADF80400032CF2D33246494680B275
:103FE000FFF76AFC15480097401E432305F11802AD
:103FF0003146806806F070FE0446304603F036F81D
:1040000001E04FF0FF34A879FF2801D2401CA871CD
:10401000C0B20A2804D24FF4FA6110FB01F001E0AB
:1040200044F6206080B24FF4FA7100F2F310B0FB56
:10403000F1F028812046BDE8FC870000BD0000208B
:104040002DE9FE43060072D0356A002D76D001219D
:10405000284600F0BBF802AB032229463046FFF7A2
:1040600051F9070071D079680223F031894639226D
:104070004C46BDF80800FFF775FBADF80800B28CA0
:104080002146FFF7E9FBADF8080004233222214660
:10409000FFF768FBADF80800E86902F047F8024650
:1040A0002146BDF80800FFF79FFBADF80800042388
:1040B00036222146FFF756FBADF80800A86902F04A
:1040C00035F802462146BDF80800FFF78DFBADF834
:1040D0000800032337222146FFF744FBDFF8A880BE
:1040E000ADF808000024494618F80420BDF808007F
:1040F000FFF750FB641CE4B2ADF80800032CF2D3C8
:104100003A46494680B2FFF7D7FB20484323CDE922
:1041100000601D481E4A401E3946806806F040FE79
:104120000446384602F0A2FF11E000E006E019A0C4
:10413000FEF75AFB6FF00F00BDE8FE831CA0FEF7F0
:1041400053FB6FF00500F7E7FFE74FF0FF34A87966
:10415000FF2801D2401CA871C1B2062902D2012059
:10416000884000E03C2000EB4001C1EBC0104FF65E
:10417000FF7101EAC0004FF4FA7100F2F310B0FBD6
:10418000F1F028812046D7E7BD0000208CB0000860
:1041900090B00008646863705F73656C6563743A1F
:1041A000206E6574696620213D204E554C4C000000
:1041B000646863705F73656C6563743A20646863F8
:1041C0007020213D204E554C4C00000042798A421F
:1041D00003D04171002181710181704770B50500E4
:1041E0006FF00F0418D095F82D00C00716D0A88CDA
:1041F0002C6A4FF0FF36B0F5107F0BD39CB12079BD
:1042000008B1FFF735F934212046FCF759F8FFF7DC
:1042100067FA78B1304670BD11A000E014A0FEF737
:10422000E3FA204670BD342002F08EF80400F1D08D
:104230002C62E8E70120207195F82D00400705D495
:1042400002212046FFF7C2FF002070BD2846FFF77D
:1042500085F90028F9D02846FFF728FEDAE70000A4
:104260006E6574696620213D204E554C4C0000005F
:104270006E65746966206973206E6F742075702C8A
:10428000206F6C64207374796C6520706F72743F5A
:104290000000000040B1006A30B140790A2805D022
:1042A000052803D0042801D0002070470120704762
:1042B00010B5026A044651790C290BD0062909D0A1
:1042C00001290BD0082918D0032926D1907902287A
:1042D00020461ED3BDE81040FFF740B9907905286D
:1042E000204603D8BDE81040FFF7AABEFFF7DEFD69
:1042F0002046BDE81040FFF771BF907901282046A5
:1043000003D8BDE81040FEF78DBFBDE81040FEF7B2
:10431000FBBEBDE81040FFF7B9BC10BD70B5054647
:104320000C46880702D004A0FEF75EFAA868006871
:104330002060A868046070BD6D656D705F66726511
:10434000653A206D656D2070726F7065726C7920B2
:10435000616C69676E65640010B58068046844B17B
:1043600021680160A00702D003A0FEF73DFA2046B5
:1043700010BD002010BD00006D656D705F6D616C3B
:104380006C6F633A206D656D702070726F7065722E
:104390006C7920616C69676E656400002DE9F041FD
:1043A000064619481446194F827875188AB1007963
:1043B00008B1786900E0B8692146FEF715FA14A043
:1043C000FEF712FAB44201D2344602E0A54200D20E
:1043D0002C46F868FEF708FA0DA0FEF705FA08E08B
:1043E00021460CA02268FEF7FFF909A0FEF7FCF9B0
:1043F000241DA542F4D80EA0FEF7F6F9BDE8F04161
:1044000003A0FEF7F1B90000DC000020A0B0000816
:104410000D0A00002020616464723A20253038784B
:1044200020202020646174613A2025303878000013
:104430003D3D3D3D3D3D3D3D3D3D3D3D3D3D3D3DAC
:104440003D3D3D3D3D3D3D3D3D3D3D3D3D3D3D3D9C
:104450003D3D3D3D0000000070B5094E054600247D
:1044600004EB440006EBC000017D29B18068A8423E
:1044700002D1204600F0F0F8641C0A2CF0DB70BD7D
:10448000C8BE01202DE9F74F84B04FF00A0B00247D
:104490008046DA465F46D946029401940094474923
:1044A00004EB440001EBC0060390357D0A2F18D0C1
:1044B0002DB3012D04D0022D02D241A0FEF794F9B4
:1044C000B8F1000F11D0D8F80000716888420CD103
:1044D000069810B1B168814207D1204607B0BDE807
:1044E000F08F002DE5D1274609E0012D15D0022DD2
:1044F00005D3708A0099884201D3A2460090641CBB
:1045000024B20A2CCBDB059881074FF0FF30E5D4AD
:104510000A2F15D017DA3C4635E02848039950F8A1
:1045200031000028708A05D002998842E7D3A1465D
:104530000290E4E701998842E1D3A3460190DEE7C7
:104540000599C907CAD05146BAF10A0F0ADA0C46D2
:104550001A4801EB440150F8310060B128A0FEF781
:1045600043F908E05946BBF10A0F03DB4946B9F1AC
:104570000A0FB3DA0C460A2C02DB27A0FEF734F947
:10458000204600F069F80A2C02DB23A0FEF72CF984
:104590000A4804EB440100EBC105287D10B123A0BB
:1045A000FEF722F9B8F1000F02D0D8F800006860D9
:1045B000002068820698A8608FE70000C8BE01202E
:1045C0007374617465203D3D204554484152505FED
:1045D00053544154455F50454E44494E47207C7CDE
:1045E000207374617465203E3D204554484152500B
:1045F0005F53544154455F535441424C45000000C1
:104600006172705F7461626C655B695D2E71203DE3
:104610003D204E554C4C000069203C204152505FDB
:104620005441424C455F53495A4500006172705FE6
:104630007461626C655B695D2E7374617465203DA5
:104640003D204554484152505F53544154455F45C5
:104650004D5054590000000070B5074D00EB400468
:10466000002655F8340018B102F000FD45F834601A
:1046700005EBC400067570BDC8BE01202DE9F043EE
:1046800085B00D00074609D07C684FF480782088FB
:10469000404540D1207906283DD105E020A0FEF715
:1046A000A3F805B0BDE8F0836079042833D16088B1
:1046B000082830D1D4F80E000490A169686818B1B8
:1046C000814201D1012600E000260EB1012300E065
:1046D000022304F10802914604A9284600F092FA48
:1046E000E088404503D0B0F5007F14D10FE096B1CB
:1046F000022204ABCDE90232291DCDE9001905F1F2
:10470000260319464A46284600F0BAF903E004A9F0
:104710002846FEF7DFFC384602F0A8FCC1E700009F
:104720006E6574696620213D204E554C4C0000009A
:10473000FEB515460E46040002D13DA0FEF754F822
:1047400016B93FA0FEF750F815B940A0FEF74CF897
:104750002146286800F013FE08B1404B3FE028686E
:10476000C0F303110E2925D0A168636800EA010295
:104770000B409A4208D080B2A0F57E41A93903D0FF
:10478000E068B0B304F10C05354B36491A7802EBFA
:10479000420001EBC000077D022F2ED38768A7429D
:1047A0002BD12F684068874227D13146204600F040
:1047B0005BF8FEBD01208DF8040000208DF8050097
:1047C0005E208DF80600687801AB00F07F008DF860
:1047D0000700A8788DF80800E8788DF809004FF4F4
:1047E0000060009004F126023146204600F0B6FA3F
:1047F000FEBDFFE76FF00300FAE7002202EB420084
:1048000001EBC000077D022F08D38768A74205D1BE
:104810002F684068874201D11A70C6E7521CD2B295
:104820000A2AEBD332462946204600F071F8DFE72A
:104830006E6574696620213D204E554C4C00000089
:104840007120213D204E554C4C0000006970616480
:10485000647220213D204E554C4C000094B000085D
:10486000D0000020C8BE01202DE9F84306461546B9
:1048700088461A4802EB450100EBC104207D02285E
:1048800002D217A0FDF7B0FF144A05EB4501207DC9
:1048900002EBC1050C35022813D1608A0327B0F55D
:1048A0008E7F04D9211D304600F068F907E0B0F58D
:1048B000877F06D32A46211D304600F065F900B9EE
:1048C00027754FF4006000902B4606F12602414602
:1048D000304600F043FABDE8F8830000C8BE01206E
:1048E0006172705F7461626C655B6172705F696454
:1048F000785D2E7374617465203E3D2045544841B7
:1049000052505F53544154455F535441424C45000B
:104910002DE9FC5F8246263001900F460868164656
:104920004FF0FF344FF0000B514600F028FD80B9E6
:104930003868C0F303110E290BD057B148B1524665
:1049400001213846FFF79EFD050005D540B2BDE8C0
:10495000FC9F6FF00F00FAE77F2D02D331A0FDF727
:1049600043FF05F0FF09334909EB490801EBC8058E
:10497000287D50B1012804D0022802D22EA0FDF7D4
:1049800033FFBBF1000F06D104E001202875C5F804
:1049900008A000E036B93946504600F0EFF804466A
:1049A000002ED4D0287D234F02280ED32C494FF45B
:1049B000006005F10C0381F80090009031465046EC
:1049C000019A00F0CBF904462AE0012828D10025FD
:1049D000344660892189884204D1206810B121A021
:1049E000FDF702FF207B400603D42468002CF0D1A1
:1049F0003DB132464FF420710E2002F013FA064604
:104A000002E0304602F016FC46B157F8380008B113
:104A100002F02CFB47F83860002401E04FF0FF342F
:104A2000204694E774797065206F766572666C6FC6
:104A300077000000C8BE01206172705F7461626C13
:104A4000655B695D2E7374617465203D3D20504542
:104A50004E44494E47206F7220535441424C45000A
:104A6000D00000206E6F207061636B6574207175DB
:104A70006575657320616C6C6F776564210000005B
:104A80002DE9FF4F81B09846DDE90FA9DDF838B078
:104A900006004FF0000702D126A0FDF7A5FE4FF457
:104AA00020721C210E2002F02BF805003ED06889F0
:104AB0001C2802D223A0FDF797FE6C68119801F024
:104AC00037FBE08096F82C00062802D02A48FDF734
:104AD0008BFED8F80010A160B8F80400A081DAF8C5
:104AE0000010C4F81210BAF80400E082DBF80000ED
:104AF000C4F80E00D9F80000A0614FF48070208047
:104B000008206080062020710420607140F60600B5
:104B1000DDE9022300902946304600F01FF92846BF
:104B200002F0A4FA384605B0BDE8F08F4FF0FF3030
:104B3000F9E700006E6574696620213D204E554CF2
:104B40004C000000636865636B20746861742066C4
:104B50006972737420706275662063616E20686F7D
:104B60006C6420737472756374206574686172700C
:104B70005F6864720000000090B20008014A00F013
:104B800003B8000094B000087FB5064D031D012452
:104B9000CDE90035CDE9021422331946FFF770FF45
:104BA00004B070BD9AB0000870B5154D002404EB38
:104BB000440005EBC002117DF1B1508A401C80B267
:104BC0005082B0F5967F0AD2012906D003290AD077
:104BD00004290AD001290BD00EE0052808D320466D
:104BE000FFF73AFD08E0042000E00220107503E022
:104BF000111D9068FFF7C2FF641C0A2CD7DB70BD43
:104C0000C8BE0120F8B5044690F82C001F46154692
:104C10000E46062802D01EA0FDF7E6FD9EB13068C4
:104C200088B1214600F0ABFB68B93078C0F30310BF
:104C30000E2808D0224639463046FFF723FC0028CC
:104C400004DA40B2F8BD6FF00F00F8BD194A00EB6E
:104C5000400102EBC1000223037584602B68C3602E
:104C6000AB8803820023438252F8316076B142F868
:104C700031304FF4006000902B4604F1260231469B
:104C8000204600F06BF8304602F0F0F90020F8BD45
:104C90006E657469662D3E6877616464725F6C65E9
:104CA0006E203D3D204554485F4857414444525F83
:104CB0004C454E00C8BE01202DE9F0410446408914
:104CC0000E270D460E283CD9E07B18B995F8300028
:104CD000401CE073606801788689CA0714D00129F6
:104CE00005D006221C49FBF7F6FA48B10CE04178E2
:104CF00051B980785E2807D1607B40F0100002E057
:104D0000607B40F008006073082E03D0B6F5C16FD9
:104D100017D10DE095F82D00000712D53946204631
:104D200002F09EFA68B92946204600F033FC10E0F4
:104D300095F82D00000704D53946204602F090FA78
:104D400018B1204602F092F903E029462046FFF709
:104D500095FC0020BDE8F08194B000082DE9F041F9
:104D600004461F4690460E46069801F0E1F90546B6
:104D70000E21304601F090FE18B16FF00100BDE841
:104D8000F0817068858139680160B9888180D8F8C0
:104D90000020C0F80620B8F80410418194F82C00D7
:104DA000062802D004A0FDF71FFD31462046A26967
:104DB000BDE8F041104700006E657469662D3E68DD
:104DC00077616464725F6C656E206D7573742062C8
:104DD00065203620666F722065746865726E657432
:104DE0005F6F7574707574210000000070B5044623
:104DF000042001F0A9FA050001D04CB10BE00FA08E
:104E0000FDF7F2FC10A0FDF7EFFC4FF0FF3070BD96
:104E100015A0FDF7E9FC7320E56184F82E007420ED
:104E200084F82F00144860611448A061204601F006
:104E300079F8263400202C6070BD00000D0A5B4517
:104E400052525D203E3E200065746865726E657446
:104E500069665F696E69743A206F7574206F6620A9
:104E60006D656D6F72790A006E6574696620213D0B
:104E7000204E554C4C000000314700084D600008A2
:104E800070B5054601F084F8040009D02A69294666
:104E90009047002804D02046BDE8704002F0E6B8F4
:104EA00070BD000070B58C4D8C4C95F838008007B3
:104EB00005D5206BFDF798FC89A0FDF795FCA86B44
:104EC00040007DD595F82400F0B3C00705D0606B95
:104ED000FDF78AFC82A0FDF787FC95F82400800787
:104EE00005D5A06BFDF780FC7DA0FDF77DFC95F856
:104EF0002400000705D5E06BFDF776FC78A0FDF7F0
:104F000073FC95F82400C00605D5206CFDF76CFCF9
:104F100073A0FDF769FC95F82400800605D5606C48
:104F2000FDF762FC6EA0FDF75FFC95F8240001061A
:104F30000DD5C10701D1800709D5A96AD4F88C0025
:104F4000FDF752FC66A000E001E0FDF74DFC95F88E
:104F50002C00B0B3C00705D0A06CFDF745FC60A0E5
:104F6000FDF742FC95F82C00800705D5E06CFDF7B5
:104F70003BFC5BA0FDF738FC95F82C00400705D5FD
:104F8000206DFDF731FC56A0FDF72EFC95F82C00A6
:104F9000000705D5606DFDF727FC51A0FDF724FC47
:104FA00095F82C00C00605D5A06DFDF71DFC4CA0A2
:104FB000FDF71AFC95F82C00800608D5E06D01E09D
:104FC0004DE012E0FDF710FC45A0FDF70DFC95F853
:104FD0002C00010609D5800707D5296BD4F890006D
:104FE000FDF702FC3EA0FDF7FFFBA88EB8B3C0079B
:104FF00005D0206EFDF7F8FB39A0FDF7F5FB95F81D
:105000003400800705D5606EFDF7EEFB34A0FDF798
:10501000EBFB95F83400400705D5A06EFDF7E4FBE7
:105020002FA0FDF7E1FB95F83400000705D5E06EF1
:10503000FDF7DAFB2AA0FDF7D7FBA88EC00505D542
:10504000206FFDF7D1FB26A0FDF7CEFBA88E8005D3
:1050500005D5606FFDF7C8FB21A0FDF7C5FBA86B68
:10506000002837DAE86B002834D0C00705D0A06FDD
:10507000FDF7BAFB1AA0FDF7B7FB95F83C008007D7
:1050800005D5E06FFDF7B0FB15A0FDF7ADFB95F87A
:105090003C00400706D5D4F88000FDF7A5FB10A022
:1050A000FDF7A2FB95F83C00000706D5D4F8840074
:1050B000FDF79AFB0AA0FDF797FB95F83C00C006A8
:1050C00008D5D4F88800FDF78FFBBDE8704004A038
:1050D000FDF78ABB70BD0000A8C00120A0B0000889
:1050E0000D0A000013B54FF47A7301226946024895
:1050F000FCF7F2FE00981CBD2C0100200A4603219B
:1051000000F0C0B82DE9FE4F424A04468A46D2F864
:10511000088098F800000007860E142E75D3608969
:10512000042872D36068017800296ED008296CD1F8
:10513000506902F11407C0F303110E2965D091469E
:10514000116800F01CF900285FD1208908285CD381
:10515000204600F0EFF8002857D106F10E010D4669
:10516000204601F099FC60B32089811989B28842F8
:105170004BD84FF420720E2001F0C2FC050044D041
:10518000698906F10800814212D3324641466868B7
:10519000FBF76FF83146284602F062F818B11EA0FE
:1051A000FDF722FB04E02146284601F059FE18B124
:1051B000284601F05BFF28E0204601F057FF2C460F
:1051C00008E02946204602F04BF818B120A0FDF770
:1051D0000BFB1AE031462046656801F05DFCA0B982
:1051E00060683968FF22C160D9F8101001610021A0
:1051F000297069800272418101228DE806040A4605
:10520000FF233946204600F0A9FA2046BDE8FE4FAC
:1052100001F02CBFF462002069636D705F696E70ED
:1052200075743A206D6F76696E6720722D3E7061DD
:10523000796C6F616420746F2069636D702068659C
:1052400061646572206661696C65640A0000000033
:1052500069636D705F696E7075743A2072657374FE
:105260006F72696E67206F726967696E616C20701A
:105270002D3E7061796C6F6164206661696C656454
:105280000A0000002DE9FF479146884606464FF484
:1052900020722421222001F033FC05002DD06889E2
:1052A000242802D216A0FDF79FFA6C6877681C22AA
:1052B00084F8008084F801904FF00008A4F804807E
:1052C000A4F80680686871680830FAF7D2FFF868B9
:1052D000039003A800F0ECFB60B1A4F80280012267
:1052E000CDF80080CDE90120FF2303AA0021284644
:1052F00000F034FA284601F0B9FEBDE8FF8700004F
:10530000636865636B207468617420666972737486
:1053100020706275662063616E20686F6C6420691E
:10532000636D70206D657373616765000A460B21BC
:10533000FFF7A8BF70B500260546344612E069891C
:10534000686800F006FF2044010C11FA80F4A87A86
:10535000C00706D08EB10026E0B2C4F3072141EAAF
:1053600000242D68002DEAD126B1E0B2C4F3072154
:1053700041EA0024E04380B270BD0126ECE7421C04
:1053800012D088B191F82D2092070BD54A6882423D
:1053900008D0896800EA01030A40934202D1014320
:1053A000491C01D000207047012070472DE9F74FBC
:1053B00088B00446099800271426808CBD1F143835
:1053C000C11700EB5170C0F3CF00039060680690E6
:1053D000017801F00F01052903D028460BB0BDE884
:1053E000F08F6189142903D256A0FDF7FDF9F4E787
:1053F000C08800F09DFEC0F30C0100F40050029143
:105400000790208914381FFA80F994E003984FF62A
:10541000FF7101EAC0004946484500D9084604909A
:105420004FF4207214210E2001F06AFB5FEA000B9A
:1054300051D0BBF80A00142802D249A0FDF7D4F9D4
:105440001422DBF804000699FAF713FFDBF80400D6
:105450000590049D31E06089811B8FB2B04202D279
:1054600047A0FDF7C1F9BD4200D22F461FB305206A
:1054700001F03AF95FEA00082AD0606843463044F8
:10548000CDE9000741223946002001F03DFC5FEAEA
:10549000000A23D0204601F0CDFE3D49C8E904149E
:1054A0005146584601F04CFCE81B05042D0C06D073
:1054B00000262468CFE724680026002DCBD1F01900
:1054C00086B20998808C143848450BDB01210AE02C
:1054D000584601F0CBFD4FF0FF307FE7404600F02B
:1054E00017FBF5E700210298C0F30C0009B10799FA
:1054F00009B140F4005000F01BFE0599C8800498E3
:10550000143080B200F014FE0599488005980021FF
:105510004181099859460A9A43699847584601F0CB
:10552000A5FD0499A9EB01001FFA80F9DDE902014C
:10553000084480B20290B9F1000F7FF467AF0020F9
:105540004CE700006970345F6672616728293A2071
:105550007062756620746F6F2073686F72740000DC
:1055600074686973206E656564732061207062756C
:105570006620696E206F6E65207069656365210025
:10558000702D3E6C656E203E3D20706F666600009B
:10559000F95E00082DE9F047456807460E46287871
:1055A00004214FF0010AB1EB101F03D0384601F07F
:1055B0005DFD88E000074FEA9068688800F0B8FD5C
:1055C00004463889A04203D92146384601F0D4FD6B
:1055D00079894145EAD33889A042E7D3B8F1140F5D
:1055E000E4D3DFF844912869C9F81400EA68C0F3ED
:1055F0000310C9F810200E2805D0304600F098F8A6
:1056000050B1344616E096F82D00C00702D07068FD
:105610000028F6D1002412E099F8140000247F2815
:105620000DD04248046808E0B44205D0204600F09E
:105630007FF808B11CB10BE02468002CF4D1687A23
:10564000112805D105EB08004088B0F5884F38D007
:10565000BAF1000F0DD0D9F8100050B13146FFF764
:105660008EFE0028A2D199F81000C0F303100E2876
:105670009CD0002C9AD0E88830F0C00005D0384685
:1056800000F002F907001ED07D68C9F80850C9E98A
:105690000046297838460907890EA9F80C104146BA
:1056A00001F0DEFD687A01281AD0062813D01128EF
:1056B0000CD04D462146D9F81400FFF760FEA0B18A
:1056C00020E03446D5E70020BDE8F0873146384673
:1056D00005F08CF919E03146384602F013FC14E06D
:1056E00031463846FFF70EFD0FE0287DC0F303106A
:1056F0000E2807D04146384601F026FD02213846E3
:10570000FFF7FCFC384601F0B1FC0021C9F800109D
:10571000C9F80410C9F80810A9F80C10C9F810103D
:10572000C9F81410CFE70000F46200205C000020EC
:1057300010B590F82D10C9070CD0416851B1064A38
:1057400052698A4204D001461046FFF718FE08B19C
:10575000012010BD002010BDF4620020FEB5DDE97F
:105760000954089E1AB109B10F6807B9211D0096A6
:10577000CDE9015400F002F8FEBD00002DE9F84F1C
:105780000546DDE90BA8807BDDF828B01F461646EC
:105790008946012802D02BA0FDF726F86FF00104FE
:1057A00086B31421284601F077F960BB68896C68DC
:1057B000142802D226A0FDF717F8277284F809A052
:1057C000306820614520207084F801B0288900F0FD
:1057D000AFFC2B4F60804FF0000AA4F806A0388879
:1057E00000F0A6FCA0803888401C3880B9F1000F7A
:1057F00005D0D9F80000E060A4F80AA00EE0214826
:105800000068F8E700E002E06889142802D2204628
:10581000BDE8F88F68686E4600690090B8F824000B
:1058200040B12989814205D9324641462846FFF7D1
:10583000BDFDEDE7D8F8143040463246294698477A
:10584000E6E70000702D3E726566203D3D20310088
:10585000636865636B207468617420666972737431
:1058600020706275662063616E20686F6C642073BF
:1058700074727563742069705F6864720000000060
:10588000D20000208CB000082DE9F05F4468834608
:10589000207800F00F0005287ED1E08800F048FC59
:1058A000C004070C608800F043FC21780907890ECA
:1058B000814271D8401A1FFA80F8584601F0A9FABF
:1058C0006B4D0646288830440A2809D931462046BF
:1058D00000F0BAFA00285FD0288830440A28E8D8B7
:1058E000A9466D684FF0000A0CE06869E1688842DB
:1058F00007D1A8692169884203D1A889A188884273
:1059000003D02D68002DF0D106E02DB1E08800F025
:105910000FFCC00425D02FE0042000F0E5FE0500B8
:105920000AD13146204600F08FFAB04217DB04203E
:1059300000F0DAFE050012D02021FAF7C1FC0F209A
:10594000E877D9F8041029601422214605F10800EF
:10595000C9F80450FAF78DFC002D1DD00CE0554617
:10596000FAE7E88900F0E4FBC00405D014222146E0
:1059700005F10800FAF77DFCA07940F34014641C9F
:1059800008D007EB080080B2B8425FD34FF6EB7146
:1059900088425BD8224600E065E05946284600F080
:1059A000C9F8411C52D0B9F800203244A9F80020AF
:1059B00034B107EB0801A983A97F41F00101A97760
:1059C000012841D1A88B1422143087B2686805F1F0
:1059D0000801466830463468FAF74BFC384600F058
:1059E000A7FB7080A6F806A0A6F80AA06E6809E0DA
:1059F00014212046676801F033FC2146304601F04F
:105A00009FF93C68002CF3D1D9F804104C468D4224
:105A100005D1002105E00868A84202D0014600290E
:105A2000F9D1284600F060F9304601F0F2F92188FA
:105A30000546A94202D20FA0FCF7D6FE2088401BE3
:105A400020803046BDE8F09F0020FBE7686850B931
:105A5000D9F80400854202D00DA0FCF7C5FE002154
:105A6000284600F041F9584601F000FBECE7000041
:105A7000D400002069705F72656173735F70627536
:105A800066636F756E74203E3D20636C656E00002A
:105A90006E6F74206669727374616C74686F756779
:105AA00068206A75737420656E717565756564002C
:105AB00070B50546144813E090F82D10CA070FD0B2
:105AC0004A070DD543685BB184682A68234002EA1F
:105AD00004069E4216D0890702D4C1688A4211D0BA
